{"abi":[{"type":"constructor","inputs":[],"stateMutability":"nonpayable"},{"type":"function","name":"createPool","inputs":[{"name":"_entryFee","type":"uint256","internalType":"uint256"},{"name":"_maxParticipants","type":"uint256","internalType":"uint256"}],"outputs":[],"stateMutability":"nonpayable"},{"type":"function","name":"getPoolInfo","inputs":[{"name":"_poolId","type":"uint256","internalType":"uint256"}],"outputs":[{"name":"entryFee","type":"uint256","internalType":"uint256"},{"name":"maxParticipants","type":"uint256","internalType":"uint256"},{"name":"currentParticipants","type":"uint256","internalType":"uint256"},{"name":"prizePool","type":"uint256","internalType":"uint256"},{"name":"currentRound","type":"uint256","internalType":"uint256"},{"name":"status","type":"uint8","internalType":"enum CoinToss.PoolStatus"}],"stateMutability":"view"},{"type":"function","name":"joinPool","inputs":[{"name":"_poolId","type":"uint256","internalType":"uint256"}],"outputs":[],"stateMutability":"payable"},{"type":"function","name":"makeSelection","inputs":[{"name":"_poolId","type":"uint256","internalType":"uint256"},{"name":"_choice","type":"uint8","internalType":"enum CoinToss.PlayerChoice"}],"outputs":[],"stateMutability":"nonpayable"},{"type":"function","name":"owner","inputs":[],"outputs":[{"name":"","type":"address","internalType":"address"}],"stateMutability":"view"},{"type":"function","name":"renounceOwnership","inputs":[],"outputs":[],"stateMutability":"nonpayable"},{"type":"function","name":"transferOwnership","inputs":[{"name":"newOwner","type":"address","internalType":"address"}],"outputs":[],"stateMutability":"nonpayable"},{"type":"event","name":"OwnershipTransferred","inputs":[{"name":"previousOwner","type":"address","indexed":true,"internalType":"address"},{"name":"newOwner","type":"address","indexed":true,"internalType":"address"}],"anonymous":false},{"type":"event","name":"PlayerJoined","inputs":[{"name":"poolId","type":"uint256","indexed":false,"internalType":"uint256"},{"name":"playerThatJoined","type":"address","indexed":false,"internalType":"address"}],"anonymous":false},{"type":"event","name":"PoolCompleted","inputs":[{"name":"poolId","type":"uint256","indexed":false,"internalType":"uint256"},{"name":"prizePool","type":"uint256","indexed":false,"internalType":"uint256"}],"anonymous":false},{"type":"event","name":"PoolCreated","inputs":[{"name":"poolId","type":"uint256","indexed":false,"internalType":"uint256"},{"name":"entryFee","type":"uint256","indexed":false,"internalType":"uint256"},{"name":"maxParticipants","type":"uint256","indexed":false,"internalType":"uint256"}],"anonymous":false},{"type":"event","name":"RoundCompleted","inputs":[{"name":"poolId","type":"uint256","indexed":false,"internalType":"uint256"},{"name":"round","type":"uint256","indexed":false,"internalType":"uint256"},{"name":"","type":"uint8","indexed":false,"internalType":"enum CoinToss.PlayerChoice"}],"anonymous":false},{"type":"error","name":"EntryFeeMustBeGreaterThanZero","inputs":[]},{"type":"error","name":"OwnableInvalidOwner","inputs":[{"name":"owner","type":"address","internalType":"address"}]},{"type":"error","name":"OwnableUnauthorizedAccount","inputs":[{"name":"account","type":"address","internalType":"address"}]}],"bytecode":{"object":"0x608060405234801561000f575f5ffd5b50335f73ffffffffffffffffffffffffffffffffffffffff168173ffffffffffffffffffffffffffffffffffffffff1603610081575f6040517f1e4fbdf7000000000000000000000000000000000000000000000000000000008152600401610078919061019d565b60405180910390fd5b6100908161009d60201b60201c565b505f6001819055506101b6565b5f5f5f9054906101000a900473ffffffffffffffffffffffffffffffffffffffff169050815f5f6101000a81548173ffffffffffffffffffffffffffffffffffffffff021916908373ffffffffffffffffffffffffffffffffffffffff1602179055508173ffffffffffffffffffffffffffffffffffffffff168173ffffffffffffffffffffffffffffffffffffffff167f8be0079c531659141344cd1fd0a4f28419497f9722a3daafe3b4186f6b6457e060405160405180910390a35050565b5f73ffffffffffffffffffffffffffffffffffffffff82169050919050565b5f6101878261015e565b9050919050565b6101978161017d565b82525050565b5f6020820190506101b05f83018461018e565b92915050565b611a7c806101c35f395ff3fe60806040526004361061006f575f3560e01c8063715018a61161004d578063715018a6146100f857806374a110c21461010e5780638da5cb5b14610136578063f2fde38b146101605761006f565b80632f380b351461007357806334e7a19f146100b457806361a8694a146100d0575b5f5ffd5b34801561007e575f5ffd5b506100996004803603810190610094919061118a565b610188565b6040516100ab96959493929190611237565b60405180910390f35b6100ce60048036038101906100c9919061118a565b610227565b005b3480156100db575f5ffd5b506100f660048036038101906100f191906112b9565b610669565b005b348015610103575f5ffd5b5061010c610a0c565b005b348015610119575f5ffd5b50610134600480360381019061012f91906112f7565b610a1f565b005b348015610141575f5ffd5b5061014a610b26565b6040516101579190611374565b60405180910390f35b34801561016b575f5ffd5b50610186600480360381019061018191906113b7565b610b4d565b005b5f5f5f5f5f5f8660015481106101d3576040517f08c379a00000000000000000000000000000000000000000000000000000000081526004016101ca9061143c565b60405180910390fd5b5f60025f8a81526020019081526020015f209050805f01548160010154826002015483600301548460060154856004015f9054906101000a900460ff16975097509750975097509750505091939550919395565b80600154811061026c576040517f08c379a00000000000000000000000000000000000000000000000000000000081526004016102639061143c565b60405180910390fd5b5f60025f8481526020019081526020015f2090505f6002811115610293576102926111c4565b5b816004015f9054906101000a900460ff1660028111156102b6576102b56111c4565b5b146102f6576040517f08c379a00000000000000000000000000000000000000000000000000000000081526004016102ed906114ca565b60405180910390fd5b805f0154341461033b576040517f08c379a000000000000000000000000000000000000000000000000000000000815260040161033290611532565b60405180910390fd5b8060010154816002015410610385576040517f08c379a000000000000000000000000000000000000000000000000000000000815260040161037c9061159a565b60405180910390fd5b5f73ffffffffffffffffffffffffffffffffffffffff16816005015f3373ffffffffffffffffffffffffffffffffffffffff1673ffffffffffffffffffffffffffffffffffffffff1681526020019081526020015f205f015f9054906101000a900473ffffffffffffffffffffffffffffffffffffffff1673ffffffffffffffffffffffffffffffffffffffff1614610453576040517f08c379a000000000000000000000000000000000000000000000000000000000815260040161044a90611628565b60405180910390fd5b5f816005015f3373ffffffffffffffffffffffffffffffffffffffff1673ffffffffffffffffffffffffffffffffffffffff1681526020019081526020015f20905033815f015f6101000a81548173ffffffffffffffffffffffffffffffffffffffff021916908373ffffffffffffffffffffffffffffffffffffffff16021790555034826003015f8282546104e99190611673565b92505081905550816002015f815480929190610504906116a6565b91905055508160070133908060018154018082558091505060019003905f5260205f20015f9091909190916101000a81548173ffffffffffffffffffffffffffffffffffffffff021916908373ffffffffffffffffffffffffffffffffffffffff1602179055505f815f0160146101000a81548160ff02191690836002811115610591576105906111c4565b5b02179055505f815f0160156101000a81548160ff0219169083151502179055505f815f0160166101000a81548160ff0219169083151502179055508160010154826002015403610608576001826004015f6101000a81548160ff02191690836002811115610602576106016111c4565b5b02179055505b7f87969bc7faf902221a147b95ceba76e011c5efb0339a0a8ee7a2bb82d9cfbbd684825f015f9054906101000a900473ffffffffffffffffffffffffffffffffffffffff1660405161065b9291906116ed565b60405180910390a150505050565b8160015481106106ae576040517f08c379a00000000000000000000000000000000000000000000000000000000081526004016106a59061143c565b60405180910390fd5b5f60025f8581526020019081526020015f2090505f816005015f3373ffffffffffffffffffffffffffffffffffffffff1673ffffffffffffffffffffffffffffffffffffffff1681526020019081526020015f20905060016002811115610718576107176111c4565b5b826004015f9054906101000a900460ff16600281111561073b5761073a6111c4565b5b1461077b576040517f08c379a00000000000000000000000000000000000000000000000000000000081526004016107729061175e565b60405180910390fd5b805f0160159054906101000a900460ff16156107cc576040517f08c379a00000000000000000000000000000000000000000000000000000000081526004016107c3906117c6565b60405180910390fd5b816008015f836006015481526020019081526020015f205f3373ffffffffffffffffffffffffffffffffffffffff1673ffffffffffffffffffffffffffffffffffffffff1681526020019081526020015f205f9054906101000a900460ff161561086b576040517f08c379a000000000000000000000000000000000000000000000000000000000815260040161086290611854565b60405180910390fd5b60011515826008015f846006015481526020019081526020015f205f3373ffffffffffffffffffffffffffffffffffffffff1673ffffffffffffffffffffffffffffffffffffffff1681526020019081526020015f205f9054906101000a9050505083826009015f846006015481526020019081526020015f205f3373ffffffffffffffffffffffffffffffffffffffff1673ffffffffffffffffffffffffffffffffffffffff1681526020019081526020015f205f6101000a81548160ff02191690836002811115610941576109406111c4565b5b02179055506001600281111561095a576109596111c4565b5b84600281111561096d5761096c6111c4565b5b0361099f5781600a015f836006015481526020019081526020015f205f815480929190610999906116a6565b91905055505b6002808111156109b2576109b16111c4565b5b8460028111156109c5576109c46111c4565b5b036109f75781600b015f836006015481526020019081526020015f205f8154809291906109f1906116a6565b91905055505b610a05858360060154610bd1565b5050505050565b610a14611004565b610a1d5f61108b565b565b610a27611004565b5f8203610a60576040517f732794e400000000000000000000000000000000000000000000000000000000815260040160405180910390fd5b5f60015f815480929190610a73906116a6565b9190505590505f60025f8381526020019081526020015f20905083815f01819055508281600101819055505f81600201819055505f81600301819055505f816004015f6101000a81548160ff02191690836002811115610ad657610ad56111c4565b5b0217905550600181600601819055507f6a0c7fbf44f6331867816b75328f586816c7ff60b5f3b71d7ccd1da786a93898828585604051610b1893929190611872565b60405180910390a150505050565b5f5f5f9054906101000a900473ffffffffffffffffffffffffffffffffffffffff16905090565b610b55611004565b5f73ffffffffffffffffffffffffffffffffffffffff168173ffffffffffffffffffffffffffffffffffffffff1603610bc5575f6040517f1e4fbdf7000000000000000000000000000000000000000000000000000000008152600401610bbc9190611374565b60405180910390fd5b610bce8161108b565b50565b816001548110610c16576040517f08c379a0000000000000000000000000000000000000000000000000000000008152600401610c0d9061143c565b60405180910390fd5b5f60025f8581526020019081526020015f20905060016002811115610c3e57610c3d6111c4565b5b816004015f9054906101000a900460ff166002811115610c6157610c606111c4565b5b14610ca1576040517f08c379a0000000000000000000000000000000000000000000000000000000008152600401610c98906118f1565b60405180910390fd5b80600c015f8481526020019081526020015f205f9054906101000a900460ff1615610d01576040517f08c379a0000000000000000000000000000000000000000000000000000000008152600401610cf890611959565b60405180910390fd5b5f81600a015f8581526020019081526020015f205490505f82600b015f8681526020019081526020015f205490505f81831015610d415760019050610d54565b82821015610d525760029050610d53565b5b5b5f5f90505f5f90505b8560070180549050811015610f2e575f866007018281548110610d8357610d82611977565b5b905f5260205f20015f9054906101000a900473ffffffffffffffffffffffffffffffffffffffff1690505f876005015f8373ffffffffffffffffffffffffffffffffffffffff1673ffffffffffffffffffffffffffffffffffffffff1681526020019081526020015f209050805f0160159054906101000a900460ff16158015610e645750876008015f8b81526020019081526020015f205f8373ffffffffffffffffffffffffffffffffffffffff1673ffffffffffffffffffffffffffffffffffffffff1681526020019081526020015f205f9054906101000a900460ff165b15610f1f57846002811115610e7c57610e7b6111c4565b5b886009015f8c81526020019081526020015f205f8473ffffffffffffffffffffffffffffffffffffffff1673ffffffffffffffffffffffffffffffffffffffff1681526020019081526020015f205f9054906101000a900460ff166002811115610ee957610ee86111c4565b5b14610f0f576001815f0160156101000a81548160ff021916908315150217905550610f1e565b8380610f1a906116a6565b9450505b5b50508080600101915050610d5d565b507f2be3106b53bd15468237edc7011ab1d99e7170fdd628cca450f28540e05be228888884604051610f62939291906119ea565b60405180910390a160018111610fe0576002856004015f6101000a81548160ff02191690836002811115610f9957610f986111c4565b5b02179055507fe6e3f8167a0352c51f4a5dc639deb5c5679ccf396f92c55db62037faa0a23512888660030154604051610fd3929190611a1f565b60405180910390a1610ffa565b846006015f815480929190610ff4906116a6565b91905055505b5050505050505050565b61100c61114c565b73ffffffffffffffffffffffffffffffffffffffff1661102a610b26565b73ffffffffffffffffffffffffffffffffffffffff16146110895761104d61114c565b6040517f118cdaa70000000000000000000000000000000000000000000000000000000081526004016110809190611374565b60405180910390fd5b565b5f5f5f9054906101000a900473ffffffffffffffffffffffffffffffffffffffff169050815f5f6101000a81548173ffffffffffffffffffffffffffffffffffffffff021916908373ffffffffffffffffffffffffffffffffffffffff1602179055508173ffffffffffffffffffffffffffffffffffffffff168173ffffffffffffffffffffffffffffffffffffffff167f8be0079c531659141344cd1fd0a4f28419497f9722a3daafe3b4186f6b6457e060405160405180910390a35050565b5f33905090565b5f5ffd5b5f819050919050565b61116981611157565b8114611173575f5ffd5b50565b5f8135905061118481611160565b92915050565b5f6020828403121561119f5761119e611153565b5b5f6111ac84828501611176565b91505092915050565b6111be81611157565b82525050565b7f4e487b71000000000000000000000000000000000000000000000000000000005f52602160045260245ffd5b60038110611202576112016111c4565b5b50565b5f819050611212826111f1565b919050565b5f61122182611205565b9050919050565b61123181611217565b82525050565b5f60c08201905061124a5f8301896111b5565b61125760208301886111b5565b61126460408301876111b5565b61127160608301866111b5565b61127e60808301856111b5565b61128b60a0830184611228565b979650505050505050565b600381106112a2575f5ffd5b50565b5f813590506112b381611296565b92915050565b5f5f604083850312156112cf576112ce611153565b5b5f6112dc85828601611176565b92505060206112ed858286016112a5565b9150509250929050565b5f5f6040838503121561130d5761130c611153565b5b5f61131a85828601611176565b925050602061132b85828601611176565b9150509250929050565b5f73ffffffffffffffffffffffffffffffffffffffff82169050919050565b5f61135e82611335565b9050919050565b61136e81611354565b82525050565b5f6020820190506113875f830184611365565b92915050565b61139681611354565b81146113a0575f5ffd5b50565b5f813590506113b18161138d565b92915050565b5f602082840312156113cc576113cb611153565b5b5f6113d9848285016113a3565b91505092915050565b5f82825260208201905092915050565b7f506f6f6c20646f6573206e6f74206578697374000000000000000000000000005f82015250565b5f6114266013836113e2565b9150611431826113f2565b602082019050919050565b5f6020820190508181035f8301526114538161141a565b9050919050565b7f54686520506f6f6c206973206e6f7420796574206f70656e656420666f7220705f8201527f617274696369706174696f6e0000000000000000000000000000000000000000602082015250565b5f6114b4602c836113e2565b91506114bf8261145a565b604082019050919050565b5f6020820190508181035f8301526114e1816114a8565b9050919050565b7f456e74727920666565206973206e6f74206d65740000000000000000000000005f82015250565b5f61151c6014836113e2565b9150611527826114e8565b602082019050919050565b5f6020820190508181035f83015261154981611510565b9050919050565b7f54686520706f6f6c20697320616c72656164792066756c6c00000000000000005f82015250565b5f6115846018836113e2565b915061158f82611550565b602082019050919050565b5f6020820190508181035f8301526115b181611578565b9050919050565b7f506c617965722068617320616c7265616479206a6f696e6564207468697320705f8201527f6f6f6c0000000000000000000000000000000000000000000000000000000000602082015250565b5f6116126023836113e2565b915061161d826115b8565b604082019050919050565b5f6020820190508181035f83015261163f81611606565b9050919050565b7f4e487b71000000000000000000000000000000000000000000000000000000005f52601160045260245ffd5b5f61167d82611157565b915061168883611157565b92508282019050808211156116a05761169f611646565b5b92915050565b5f6116b082611157565b91507fffffffffffffffffffffffffffffffffffffffffffffffffffffffffffffffff82036116e2576116e1611646565b5b600182019050919050565b5f6040820190506117005f8301856111b5565b61170d6020830184611365565b9392505050565b7f506f6f6c2068617320746f2062652061637469766500000000000000000000005f82015250565b5f6117486015836113e2565b915061175382611714565b602082019050919050565b5f6020820190508181035f8301526117758161173c565b9050919050565b7f506c6179657220697320656c696d696e617465640000000000000000000000005f82015250565b5f6117b06014836113e2565b91506117bb8261177c565b602082019050919050565b5f6020820190508181035f8301526117dd816117a4565b9050919050565b7f416c7265616479206d61646520612073656c656374696f6e20666f72207468695f8201527f7320726f756e6400000000000000000000000000000000000000000000000000602082015250565b5f61183e6027836113e2565b9150611849826117e4565b604082019050919050565b5f6020820190508181035f83015261186b81611832565b9050919050565b5f6060820190506118855f8301866111b5565b61189260208301856111b5565b61189f60408301846111b5565b949350505050565b7f506f6f6c206d75737420626520616374697665000000000000000000000000005f82015250565b5f6118db6013836113e2565b91506118e6826118a7565b602082019050919050565b5f6020820190508181035f830152611908816118cf565b9050919050565b7f526f756e6420616c726561647920636f6d706c657465640000000000000000005f82015250565b5f6119436017836113e2565b915061194e8261190f565b602082019050919050565b5f6020820190508181035f83015261197081611937565b9050919050565b7f4e487b71000000000000000000000000000000000000000000000000000000005f52603260045260245ffd5b600381106119b5576119b46111c4565b5b50565b5f8190506119c5826119a4565b919050565b5f6119d4826119b8565b9050919050565b6119e4816119ca565b82525050565b5f6060820190506119fd5f8301866111b5565b611a0a60208301856111b5565b611a1760408301846119db565b949350505050565b5f604082019050611a325f8301856111b5565b611a3f60208301846111b5565b939250505056fea2646970667358221220be029190d56cb37f44df5f45b6cb164c0464232361291d25008d62ef02a5189d64736f6c634300081c0033","linkReferences":{}},"methodIdentifiers":{"createPool(uint256,uint256)":"74a110c2","getPoolInfo(uint256)":"2f380b35","joinPool(uint256)":"34e7a19f","makeSelection(uint256,uint8)":"61a8694a","owner()":"8da5cb5b","renounceOwnership()":"715018a6","transferOwnership(address)":"f2fde38b"},"id":17}