{"abi":[{"type":"constructor","inputs":[],"stateMutability":"nonpayable"},{"type":"function","name":"createPool","inputs":[{"name":"_entryFee","type":"uint256","internalType":"uint256"},{"name":"_maxParticipants","type":"uint256","internalType":"uint256"}],"outputs":[],"stateMutability":"nonpayable"},{"type":"function","name":"getPoolInfo","inputs":[{"name":"_poolId","type":"uint256","internalType":"uint256"}],"outputs":[{"name":"entryFee","type":"uint256","internalType":"uint256"},{"name":"maxParticipants","type":"uint256","internalType":"uint256"},{"name":"currentParticipants","type":"uint256","internalType":"uint256"},{"name":"prizePool","type":"uint256","internalType":"uint256"},{"name":"currentRound","type":"uint256","internalType":"uint256"},{"name":"status","type":"uint8","internalType":"enum CoinToss.PoolStatus"}],"stateMutability":"view"},{"type":"function","name":"joinPool","inputs":[{"name":"_poolId","type":"uint256","internalType":"uint256"}],"outputs":[],"stateMutability":"payable"},{"type":"function","name":"makeSelection","inputs":[{"name":"_poolId","type":"uint256","internalType":"uint256"},{"name":"_choice","type":"uint8","internalType":"enum CoinToss.PlayerChoice"}],"outputs":[],"stateMutability":"nonpayable"},{"type":"function","name":"owner","inputs":[],"outputs":[{"name":"","type":"address","internalType":"address"}],"stateMutability":"view"},{"type":"function","name":"poolCount","inputs":[],"outputs":[{"name":"","type":"uint256","internalType":"uint256"}],"stateMutability":"view"},{"type":"function","name":"renounceOwnership","inputs":[],"outputs":[],"stateMutability":"nonpayable"},{"type":"function","name":"transferOwnership","inputs":[{"name":"newOwner","type":"address","internalType":"address"}],"outputs":[],"stateMutability":"nonpayable"},{"type":"event","name":"OwnershipTransferred","inputs":[{"name":"previousOwner","type":"address","indexed":true,"internalType":"address"},{"name":"newOwner","type":"address","indexed":true,"internalType":"address"}],"anonymous":false},{"type":"event","name":"PlayerJoined","inputs":[{"name":"poolId","type":"uint256","indexed":false,"internalType":"uint256"},{"name":"playerThatJoined","type":"address","indexed":false,"internalType":"address"}],"anonymous":false},{"type":"event","name":"PoolCompleted","inputs":[{"name":"poolId","type":"uint256","indexed":false,"internalType":"uint256"},{"name":"prizePool","type":"uint256","indexed":false,"internalType":"uint256"}],"anonymous":false},{"type":"event","name":"PoolCreated","inputs":[{"name":"poolId","type":"uint256","indexed":false,"internalType":"uint256"},{"name":"entryFee","type":"uint256","indexed":false,"internalType":"uint256"},{"name":"maxParticipants","type":"uint256","indexed":false,"internalType":"uint256"}],"anonymous":false},{"type":"event","name":"RoundCompleted","inputs":[{"name":"poolId","type":"uint256","indexed":false,"internalType":"uint256"},{"name":"round","type":"uint256","indexed":false,"internalType":"uint256"},{"name":"","type":"uint8","indexed":false,"internalType":"enum CoinToss.PlayerChoice"}],"anonymous":false},{"type":"error","name":"EntryFeeMustBeGreaterThanZero","inputs":[]},{"type":"error","name":"OwnableInvalidOwner","inputs":[{"name":"owner","type":"address","internalType":"address"}]},{"type":"error","name":"OwnableUnauthorizedAccount","inputs":[{"name":"account","type":"address","internalType":"address"}]}],"bytecode":{"object":"0x608060405234801561000f575f5ffd5b50335f73ffffffffffffffffffffffffffffffffffffffff168173ffffffffffffffffffffffffffffffffffffffff1603610081575f6040517f1e4fbdf7000000000000000000000000000000000000000000000000000000008152600401610078919061019d565b60405180910390fd5b6100908161009d60201b60201c565b505f6001819055506101b6565b5f5f5f9054906101000a900473ffffffffffffffffffffffffffffffffffffffff169050815f5f6101000a81548173ffffffffffffffffffffffffffffffffffffffff021916908373ffffffffffffffffffffffffffffffffffffffff1602179055508173ffffffffffffffffffffffffffffffffffffffff168173ffffffffffffffffffffffffffffffffffffffff167f8be0079c531659141344cd1fd0a4f28419497f9722a3daafe3b4186f6b6457e060405160405180910390a35050565b5f73ffffffffffffffffffffffffffffffffffffffff82169050919050565b5f6101878261015e565b9050919050565b6101978161017d565b82525050565b5f6020820190506101b05f83018461018e565b92915050565b611ad0806101c35f395ff3fe60806040526004361061007a575f3560e01c806374a110c21161004d57806374a110c2146101195780638da5cb5b14610141578063f2fde38b1461016b578063f525cb68146101935761007a565b80632f380b351461007e57806334e7a19f146100bf57806361a8694a146100db578063715018a614610103575b5f5ffd5b348015610089575f5ffd5b506100a4600480360381019061009f91906111c5565b6101bd565b6040516100b696959493929190611272565b60405180910390f35b6100d960048036038101906100d491906111c5565b61025c565b005b3480156100e6575f5ffd5b5061010160048036038101906100fc91906112f4565b61069e565b005b34801561010e575f5ffd5b50610117610a41565b005b348015610124575f5ffd5b5061013f600480360381019061013a9190611332565b610a54565b005b34801561014c575f5ffd5b50610155610b5b565b60405161016291906113af565b60405180910390f35b348015610176575f5ffd5b50610191600480360381019061018c91906113f2565b610b82565b005b34801561019e575f5ffd5b506101a7610c06565b6040516101b4919061141d565b60405180910390f35b5f5f5f5f5f5f866001548110610208576040517f08c379a00000000000000000000000000000000000000000000000000000000081526004016101ff90611490565b60405180910390fd5b5f60025f8a81526020019081526020015f209050805f01548160010154826002015483600301548460060154856004015f9054906101000a900460ff16975097509750975097509750505091939550919395565b8060015481106102a1576040517f08c379a000000000000000000000000000000000000000000000000000000000815260040161029890611490565b60405180910390fd5b5f60025f8481526020019081526020015f2090505f60028111156102c8576102c76111ff565b5b816004015f9054906101000a900460ff1660028111156102eb576102ea6111ff565b5b1461032b576040517f08c379a00000000000000000000000000000000000000000000000000000000081526004016103229061151e565b60405180910390fd5b805f01543414610370576040517f08c379a000000000000000000000000000000000000000000000000000000000815260040161036790611586565b60405180910390fd5b80600101548160020154106103ba576040517f08c379a00000000000000000000000000000000000000000000000000000000081526004016103b1906115ee565b60405180910390fd5b5f73ffffffffffffffffffffffffffffffffffffffff16816005015f3373ffffffffffffffffffffffffffffffffffffffff1673ffffffffffffffffffffffffffffffffffffffff1681526020019081526020015f205f015f9054906101000a900473ffffffffffffffffffffffffffffffffffffffff1673ffffffffffffffffffffffffffffffffffffffff1614610488576040517f08c379a000000000000000000000000000000000000000000000000000000000815260040161047f9061167c565b60405180910390fd5b5f816005015f3373ffffffffffffffffffffffffffffffffffffffff1673ffffffffffffffffffffffffffffffffffffffff1681526020019081526020015f20905033815f015f6101000a81548173ffffffffffffffffffffffffffffffffffffffff021916908373ffffffffffffffffffffffffffffffffffffffff16021790555034826003015f82825461051e91906116c7565b92505081905550816002015f815480929190610539906116fa565b91905055508160070133908060018154018082558091505060019003905f5260205f20015f9091909190916101000a81548173ffffffffffffffffffffffffffffffffffffffff021916908373ffffffffffffffffffffffffffffffffffffffff1602179055505f815f0160146101000a81548160ff021916908360028111156105c6576105c56111ff565b5b02179055505f815f0160156101000a81548160ff0219169083151502179055505f815f0160166101000a81548160ff021916908315150217905550816001015482600201540361063d576001826004015f6101000a81548160ff02191690836002811115610637576106366111ff565b5b02179055505b7f87969bc7faf902221a147b95ceba76e011c5efb0339a0a8ee7a2bb82d9cfbbd684825f015f9054906101000a900473ffffffffffffffffffffffffffffffffffffffff16604051610690929190611741565b60405180910390a150505050565b8160015481106106e3576040517f08c379a00000000000000000000000000000000000000000000000000000000081526004016106da90611490565b60405180910390fd5b5f60025f8581526020019081526020015f2090505f816005015f3373ffffffffffffffffffffffffffffffffffffffff1673ffffffffffffffffffffffffffffffffffffffff1681526020019081526020015f2090506001600281111561074d5761074c6111ff565b5b826004015f9054906101000a900460ff1660028111156107705761076f6111ff565b5b146107b0576040517f08c379a00000000000000000000000000000000000000000000000000000000081526004016107a7906117b2565b60405180910390fd5b805f0160159054906101000a900460ff1615610801576040517f08c379a00000000000000000000000000000000000000000000000000000000081526004016107f89061181a565b60405180910390fd5b816008015f836006015481526020019081526020015f205f3373ffffffffffffffffffffffffffffffffffffffff1673ffffffffffffffffffffffffffffffffffffffff1681526020019081526020015f205f9054906101000a900460ff16156108a0576040517f08c379a0000000000000000000000000000000000000000000000000000000008152600401610897906118a8565b60405180910390fd5b60011515826008015f846006015481526020019081526020015f205f3373ffffffffffffffffffffffffffffffffffffffff1673ffffffffffffffffffffffffffffffffffffffff1681526020019081526020015f205f9054906101000a9050505083826009015f846006015481526020019081526020015f205f3373ffffffffffffffffffffffffffffffffffffffff1673ffffffffffffffffffffffffffffffffffffffff1681526020019081526020015f205f6101000a81548160ff02191690836002811115610976576109756111ff565b5b02179055506001600281111561098f5761098e6111ff565b5b8460028111156109a2576109a16111ff565b5b036109d45781600a015f836006015481526020019081526020015f205f8154809291906109ce906116fa565b91905055505b6002808111156109e7576109e66111ff565b5b8460028111156109fa576109f96111ff565b5b03610a2c5781600b015f836006015481526020019081526020015f205f815480929190610a26906116fa565b91905055505b610a3a858360060154610c0c565b5050505050565b610a4961103f565b610a525f6110c6565b565b610a5c61103f565b5f8203610a95576040517f732794e400000000000000000000000000000000000000000000000000000000815260040160405180910390fd5b5f60015f815480929190610aa8906116fa565b9190505590505f60025f8381526020019081526020015f20905083815f01819055508281600101819055505f81600201819055505f81600301819055505f816004015f6101000a81548160ff02191690836002811115610b0b57610b0a6111ff565b5b0217905550600181600601819055507f6a0c7fbf44f6331867816b75328f586816c7ff60b5f3b71d7ccd1da786a93898828585604051610b4d939291906118c6565b60405180910390a150505050565b5f5f5f9054906101000a900473ffffffffffffffffffffffffffffffffffffffff16905090565b610b8a61103f565b5f73ffffffffffffffffffffffffffffffffffffffff168173ffffffffffffffffffffffffffffffffffffffff1603610bfa575f6040517f1e4fbdf7000000000000000000000000000000000000000000000000000000008152600401610bf191906113af565b60405180910390fd5b610c03816110c6565b50565b60015481565b816001548110610c51576040517f08c379a0000000000000000000000000000000000000000000000000000000008152600401610c4890611490565b60405180910390fd5b5f60025f8581526020019081526020015f20905060016002811115610c7957610c786111ff565b5b816004015f9054906101000a900460ff166002811115610c9c57610c9b6111ff565b5b14610cdc576040517f08c379a0000000000000000000000000000000000000000000000000000000008152600401610cd390611945565b60405180910390fd5b80600c015f8481526020019081526020015f205f9054906101000a900460ff1615610d3c576040517f08c379a0000000000000000000000000000000000000000000000000000000008152600401610d33906119ad565b60405180910390fd5b5f81600a015f8581526020019081526020015f205490505f82600b015f8681526020019081526020015f205490505f81831015610d7c5760019050610d8f565b82821015610d8d5760029050610d8e565b5b5b5f5f90505f5f90505b8560070180549050811015610f69575f866007018281548110610dbe57610dbd6119cb565b5b905f5260205f20015f9054906101000a900473ffffffffffffffffffffffffffffffffffffffff1690505f876005015f8373ffffffffffffffffffffffffffffffffffffffff1673ffffffffffffffffffffffffffffffffffffffff1681526020019081526020015f209050805f0160159054906101000a900460ff16158015610e9f5750876008015f8b81526020019081526020015f205f8373ffffffffffffffffffffffffffffffffffffffff1673ffffffffffffffffffffffffffffffffffffffff1681526020019081526020015f205f9054906101000a900460ff165b15610f5a57846002811115610eb757610eb66111ff565b5b886009015f8c81526020019081526020015f205f8473ffffffffffffffffffffffffffffffffffffffff1673ffffffffffffffffffffffffffffffffffffffff1681526020019081526020015f205f9054906101000a900460ff166002811115610f2457610f236111ff565b5b14610f4a576001815f0160156101000a81548160ff021916908315150217905550610f59565b8380610f55906116fa565b9450505b5b50508080600101915050610d98565b507f2be3106b53bd15468237edc7011ab1d99e7170fdd628cca450f28540e05be228888884604051610f9d93929190611a3e565b60405180910390a16001811161101b576002856004015f6101000a81548160ff02191690836002811115610fd457610fd36111ff565b5b02179055507fe6e3f8167a0352c51f4a5dc639deb5c5679ccf396f92c55db62037faa0a2351288866003015460405161100e929190611a73565b60405180910390a1611035565b846006015f81548092919061102f906116fa565b91905055505b5050505050505050565b611047611187565b73ffffffffffffffffffffffffffffffffffffffff16611065610b5b565b73ffffffffffffffffffffffffffffffffffffffff16146110c457611088611187565b6040517f118cdaa70000000000000000000000000000000000000000000000000000000081526004016110bb91906113af565b60405180910390fd5b565b5f5f5f9054906101000a900473ffffffffffffffffffffffffffffffffffffffff169050815f5f6101000a81548173ffffffffffffffffffffffffffffffffffffffff021916908373ffffffffffffffffffffffffffffffffffffffff1602179055508173ffffffffffffffffffffffffffffffffffffffff168173ffffffffffffffffffffffffffffffffffffffff167f8be0079c531659141344cd1fd0a4f28419497f9722a3daafe3b4186f6b6457e060405160405180910390a35050565b5f33905090565b5f5ffd5b5f819050919050565b6111a481611192565b81146111ae575f5ffd5b50565b5f813590506111bf8161119b565b92915050565b5f602082840312156111da576111d961118e565b5b5f6111e7848285016111b1565b91505092915050565b6111f981611192565b82525050565b7f4e487b71000000000000000000000000000000000000000000000000000000005f52602160045260245ffd5b6003811061123d5761123c6111ff565b5b50565b5f81905061124d8261122c565b919050565b5f61125c82611240565b9050919050565b61126c81611252565b82525050565b5f60c0820190506112855f8301896111f0565b61129260208301886111f0565b61129f60408301876111f0565b6112ac60608301866111f0565b6112b960808301856111f0565b6112c660a0830184611263565b979650505050505050565b600381106112dd575f5ffd5b50565b5f813590506112ee816112d1565b92915050565b5f5f6040838503121561130a5761130961118e565b5b5f611317858286016111b1565b9250506020611328858286016112e0565b9150509250929050565b5f5f604083850312156113485761134761118e565b5b5f611355858286016111b1565b9250506020611366858286016111b1565b9150509250929050565b5f73ffffffffffffffffffffffffffffffffffffffff82169050919050565b5f61139982611370565b9050919050565b6113a98161138f565b82525050565b5f6020820190506113c25f8301846113a0565b92915050565b6113d18161138f565b81146113db575f5ffd5b50565b5f813590506113ec816113c8565b92915050565b5f602082840312156114075761140661118e565b5b5f611414848285016113de565b91505092915050565b5f6020820190506114305f8301846111f0565b92915050565b5f82825260208201905092915050565b7f506f6f6c20646f6573206e6f74206578697374000000000000000000000000005f82015250565b5f61147a601383611436565b915061148582611446565b602082019050919050565b5f6020820190508181035f8301526114a78161146e565b9050919050565b7f54686520506f6f6c206973206e6f7420796574206f70656e656420666f7220705f8201527f617274696369706174696f6e0000000000000000000000000000000000000000602082015250565b5f611508602c83611436565b9150611513826114ae565b604082019050919050565b5f6020820190508181035f830152611535816114fc565b9050919050565b7f456e74727920666565206973206e6f74206d65740000000000000000000000005f82015250565b5f611570601483611436565b915061157b8261153c565b602082019050919050565b5f6020820190508181035f83015261159d81611564565b9050919050565b7f54686520706f6f6c20697320616c72656164792066756c6c00000000000000005f82015250565b5f6115d8601883611436565b91506115e3826115a4565b602082019050919050565b5f6020820190508181035f830152611605816115cc565b9050919050565b7f506c617965722068617320616c7265616479206a6f696e6564207468697320705f8201527f6f6f6c0000000000000000000000000000000000000000000000000000000000602082015250565b5f611666602383611436565b91506116718261160c565b604082019050919050565b5f6020820190508181035f8301526116938161165a565b9050919050565b7f4e487b71000000000000000000000000000000000000000000000000000000005f52601160045260245ffd5b5f6116d182611192565b91506116dc83611192565b92508282019050808211156116f4576116f361169a565b5b92915050565b5f61170482611192565b91507fffffffffffffffffffffffffffffffffffffffffffffffffffffffffffffffff82036117365761173561169a565b5b600182019050919050565b5f6040820190506117545f8301856111f0565b61176160208301846113a0565b9392505050565b7f506f6f6c2068617320746f2062652061637469766500000000000000000000005f82015250565b5f61179c601583611436565b91506117a782611768565b602082019050919050565b5f6020820190508181035f8301526117c981611790565b9050919050565b7f506c6179657220697320656c696d696e617465640000000000000000000000005f82015250565b5f611804601483611436565b915061180f826117d0565b602082019050919050565b5f6020820190508181035f830152611831816117f8565b9050919050565b7f416c7265616479206d61646520612073656c656374696f6e20666f72207468695f8201527f7320726f756e6400000000000000000000000000000000000000000000000000602082015250565b5f611892602783611436565b915061189d82611838565b604082019050919050565b5f6020820190508181035f8301526118bf81611886565b9050919050565b5f6060820190506118d95f8301866111f0565b6118e660208301856111f0565b6118f360408301846111f0565b949350505050565b7f506f6f6c206d75737420626520616374697665000000000000000000000000005f82015250565b5f61192f601383611436565b915061193a826118fb565b602082019050919050565b5f6020820190508181035f83015261195c81611923565b9050919050565b7f526f756e6420616c726561647920636f6d706c657465640000000000000000005f82015250565b5f611997601783611436565b91506119a282611963565b602082019050919050565b5f6020820190508181035f8301526119c48161198b565b9050919050565b7f4e487b71000000000000000000000000000000000000000000000000000000005f52603260045260245ffd5b60038110611a0957611a086111ff565b5b50565b5f819050611a19826119f8565b919050565b5f611a2882611a0c565b9050919050565b611a3881611a1e565b82525050565b5f606082019050611a515f8301866111f0565b611a5e60208301856111f0565b611a6b6040830184611a2f565b949350505050565b5f604082019050611a865f8301856111f0565b611a9360208301846111f0565b939250505056fea2646970667358221220718f2bf920956d2b0bff089051b8712f890ba76017cf21c27debef4d25200ae264736f6c634300081c0033","linkReferences":{}},"methodIdentifiers":{"createPool(uint256,uint256)":"74a110c2","getPoolInfo(uint256)":"2f380b35","joinPool(uint256)":"34e7a19f","makeSelection(uint256,uint8)":"61a8694a","owner()":"8da5cb5b","poolCount()":"f525cb68","renounceOwnership()":"715018a6","transferOwnership(address)":"f2fde38b"},"id":22}