{"abi":[{"type":"constructor","inputs":[],"stateMutability":"nonpayable"},{"type":"function","name":"claimPrize","inputs":[{"name":"_poolId","type":"uint256","internalType":"uint256"}],"outputs":[],"stateMutability":"nonpayable"},{"type":"function","name":"createPool","inputs":[{"name":"_entryFee","type":"uint256","internalType":"uint256"},{"name":"_maxParticipants","type":"uint256","internalType":"uint256"}],"outputs":[],"stateMutability":"nonpayable"},{"type":"function","name":"didPlayerWinRound","inputs":[{"name":"_poolId","type":"uint256","internalType":"uint256"},{"name":"_round","type":"uint256","internalType":"uint256"},{"name":"_playerAddress","type":"address","internalType":"address"}],"outputs":[{"name":"","type":"bool","internalType":"bool"}],"stateMutability":"view"},{"type":"function","name":"getFinalWinners","inputs":[{"name":"_poolId","type":"uint256","internalType":"uint256"}],"outputs":[{"name":"","type":"address[]","internalType":"address[]"}],"stateMutability":"view"},{"type":"function","name":"getPlayerStatus","inputs":[{"name":"_poolId","type":"uint256","internalType":"uint256"},{"name":"_player","type":"address","internalType":"address"}],"outputs":[{"name":"isParticipant","type":"bool","internalType":"bool"},{"name":"isEliminated","type":"bool","internalType":"bool"},{"name":"isWinner","type":"bool","internalType":"bool"},{"name":"hasClaimed","type":"bool","internalType":"bool"}],"stateMutability":"view"},{"type":"function","name":"getPoolInfo","inputs":[{"name":"_poolId","type":"uint256","internalType":"uint256"}],"outputs":[{"name":"entryFee","type":"uint256","internalType":"uint256"},{"name":"maxParticipants","type":"uint256","internalType":"uint256"},{"name":"currentParticipants","type":"uint256","internalType":"uint256"},{"name":"prizePool","type":"uint256","internalType":"uint256"},{"name":"currentRound","type":"uint256","internalType":"uint256"},{"name":"status","type":"uint8","internalType":"enum CoinToss.PoolStatus"},{"name":"maxWinners","type":"uint256","internalType":"uint256"},{"name":"currentActiveParticipants","type":"uint256","internalType":"uint256"}],"stateMutability":"view"},{"type":"function","name":"getRoundLosers","inputs":[{"name":"_poolId","type":"uint256","internalType":"uint256"},{"name":"_round","type":"uint256","internalType":"uint256"}],"outputs":[{"name":"","type":"address[]","internalType":"address[]"}],"stateMutability":"view"},{"type":"function","name":"getRoundWinners","inputs":[{"name":"_poolId","type":"uint256","internalType":"uint256"},{"name":"_round","type":"uint256","internalType":"uint256"}],"outputs":[{"name":"","type":"address[]","internalType":"address[]"}],"stateMutability":"view"},{"type":"function","name":"isPlayerWinner","inputs":[{"name":"_poolId","type":"uint256","internalType":"uint256"},{"name":"_player","type":"address","internalType":"address"}],"outputs":[{"name":"","type":"bool","internalType":"bool"}],"stateMutability":"view"},{"type":"function","name":"joinPool","inputs":[{"name":"_poolId","type":"uint256","internalType":"uint256"}],"outputs":[],"stateMutability":"payable"},{"type":"function","name":"makeSelection","inputs":[{"name":"_poolId","type":"uint256","internalType":"uint256"},{"name":"_choice","type":"uint8","internalType":"enum CoinToss.PlayerChoice"}],"outputs":[],"stateMutability":"nonpayable"},{"type":"function","name":"owner","inputs":[],"outputs":[{"name":"","type":"address","internalType":"address"}],"stateMutability":"view"},{"type":"function","name":"poolCount","inputs":[],"outputs":[{"name":"","type":"uint256","internalType":"uint256"}],"stateMutability":"view"},{"type":"function","name":"pools","inputs":[{"name":"","type":"uint256","internalType":"uint256"}],"outputs":[{"name":"entryFee","type":"uint256","internalType":"uint256"},{"name":"maxParticipants","type":"uint256","internalType":"uint256"},{"name":"currentParticipants","type":"uint256","internalType":"uint256"},{"name":"prizePool","type":"uint256","internalType":"uint256"},{"name":"status","type":"uint8","internalType":"enum CoinToss.PoolStatus"},{"name":"currentRound","type":"uint256","internalType":"uint256"},{"name":"maxWinners","type":"uint256","internalType":"uint256"},{"name":"currentActiveParticipants","type":"uint256","internalType":"uint256"},{"name":"prizeClaimed","type":"bool","internalType":"bool"}],"stateMutability":"view"},{"type":"function","name":"renounceOwnership","inputs":[],"outputs":[],"stateMutability":"nonpayable"},{"type":"function","name":"transferOwnership","inputs":[{"name":"newOwner","type":"address","internalType":"address"}],"outputs":[],"stateMutability":"nonpayable"},{"type":"event","name":"OwnershipTransferred","inputs":[{"name":"previousOwner","type":"address","indexed":true,"internalType":"address"},{"name":"newOwner","type":"address","indexed":true,"internalType":"address"}],"anonymous":false},{"type":"event","name":"PlayerJoined","inputs":[{"name":"poolId","type":"uint256","indexed":false,"internalType":"uint256"},{"name":"playerThatJoined","type":"address","indexed":false,"internalType":"address"}],"anonymous":false},{"type":"event","name":"PoolCompleted","inputs":[{"name":"poolId","type":"uint256","indexed":false,"internalType":"uint256"},{"name":"prizePool","type":"uint256","indexed":false,"internalType":"uint256"}],"anonymous":false},{"type":"event","name":"PoolCreated","inputs":[{"name":"poolId","type":"uint256","indexed":false,"internalType":"uint256"},{"name":"entryFee","type":"uint256","indexed":false,"internalType":"uint256"},{"name":"maxParticipants","type":"uint256","indexed":false,"internalType":"uint256"}],"anonymous":false},{"type":"event","name":"PrizeClaimed","inputs":[{"name":"poolId","type":"uint256","indexed":false,"internalType":"uint256"},{"name":"player","type":"address","indexed":false,"internalType":"address"},{"name":"prizeAmount","type":"uint256","indexed":false,"internalType":"uint256"}],"anonymous":false},{"type":"event","name":"RoundCompleted","inputs":[{"name":"poolId","type":"uint256","indexed":false,"internalType":"uint256"},{"name":"round","type":"uint256","indexed":false,"internalType":"uint256"},{"name":"","type":"uint8","indexed":false,"internalType":"enum CoinToss.PlayerChoice"}],"anonymous":false},{"type":"event","name":"RoundLosers","inputs":[{"name":"poolId","type":"uint256","indexed":false,"internalType":"uint256"},{"name":"round","type":"uint256","indexed":false,"internalType":"uint256"},{"name":"roundWinners","type":"address[]","indexed":false,"internalType":"address[]"}],"anonymous":false},{"type":"event","name":"RoundWinners","inputs":[{"name":"poolId","type":"uint256","indexed":false,"internalType":"uint256"},{"name":"round","type":"uint256","indexed":false,"internalType":"uint256"},{"name":"roundWinners","type":"address[]","indexed":false,"internalType":"address[]"}],"anonymous":false},{"type":"error","name":"EntryFeeMustBeGreaterThanZero","inputs":[]},{"type":"error","name":"OwnableInvalidOwner","inputs":[{"name":"owner","type":"address","internalType":"address"}]},{"type":"error","name":"OwnableUnauthorizedAccount","inputs":[{"name":"account","type":"address","internalType":"address"}]}],"bytecode":{"object":"0x608060405234801562000010575f80fd5b50335f73ffffffffffffffffffffffffffffffffffffffff168173ffffffffffffffffffffffffffffffffffffffff160362000085575f6040517f1e4fbdf70000000000000000000000000000000000000000000000000000000081526004016200007c9190620001a8565b60405180910390fd5b6200009681620000a460201b60201c565b505f600181905550620001c3565b5f805f9054906101000a900473ffffffffffffffffffffffffffffffffffffffff169050815f806101000a81548173ffffffffffffffffffffffffffffffffffffffff021916908373ffffffffffffffffffffffffffffffffffffffff1602179055508173ffffffffffffffffffffffffffffffffffffffff168173ffffffffffffffffffffffffffffffffffffffff167f8be0079c531659141344cd1fd0a4f28419497f9722a3daafe3b4186f6b6457e060405160405180910390a35050565b5f73ffffffffffffffffffffffffffffffffffffffff82169050919050565b5f620001908262000165565b9050919050565b620001a28162000184565b82525050565b5f602082019050620001bd5f83018462000197565b92915050565b6135e780620001d15f395ff3fe6080604052600436106100f2575f3560e01c80639a5b5a9611610089578063d709815411610058578063d709815414610358578063f1aa668a14610380578063f2fde38b146103bc578063f525cb68146103e4576100f2565b80639a5b5a9614610260578063ac4afa381461029c578063b78ae7e0146102e0578063c1f947961461031c576100f2565b8063715018a6116100c5578063715018a6146101b957806374a110c2146101cf5780638da5cb5b146101f7578063958b3bd314610221576100f2565b806304ad1ade146100f65780632f380b351461013257806334e7a19f1461017557806361a8694a14610191575b5f80fd5b348015610101575f80fd5b5061011c600480360381019061011791906124f9565b61040e565b604051610129919061261e565b60405180910390f35b34801561013d575f80fd5b506101586004803603810190610153919061263e565b61055a565b60405161016c9897969594939291906126eb565b60405180910390f35b61018f600480360381019061018a919061263e565b61060b565b005b34801561019c575f80fd5b506101b760048036038101906101b2919061278a565b610a5a565b005b3480156101c4575f80fd5b506101cd610f3f565b005b3480156101da575f80fd5b506101f560048036038101906101f091906124f9565b610f52565b005b348015610202575f80fd5b5061020b61108e565b60405161021891906127d7565b60405180910390f35b34801561022c575f80fd5b506102476004803603810190610242919061281a565b6110b5565b6040516102579493929190612872565b60405180910390f35b34801561026b575f80fd5b506102866004803603810190610281919061263e565b611225565b604051610293919061261e565b60405180910390f35b3480156102a7575f80fd5b506102c260048036038101906102bd919061263e565b611390565b6040516102d7999897969594939291906128b5565b60405180910390f35b3480156102eb575f80fd5b50610306600480360381019061030191906124f9565b6113f2565b604051610313919061261e565b60405180910390f35b348015610327575f80fd5b50610342600480360381019061033d919061281a565b61153e565b60405161034f9190612940565b60405180910390f35b348015610363575f80fd5b5061037e6004803603810190610379919061263e565b6116ba565b005b34801561038b575f80fd5b506103a660048036038101906103a19190612959565b611986565b6040516103b39190612940565b60405180910390f35b3480156103c7575f80fd5b506103e260048036038101906103dd91906129a9565b611b4f565b005b3480156103ef575f80fd5b506103f8611bd3565b60405161040591906129d4565b60405180910390f35b6060826001548110610455576040517f08c379a000000000000000000000000000000000000000000000000000000000815260040161044c90612a47565b60405180910390fd5b60025f8581526020019081526020015f20600601548311156104ac576040517f08c379a00000000000000000000000000000000000000000000000000000000081526004016104a390612aaf565b60405180910390fd5b60025f8581526020019081526020015f206010015f8481526020019081526020015f2080548060200260200160405190810160405280929190818152602001828054801561054c57602002820191905f5260205f20905b815f9054906101000a900473ffffffffffffffffffffffffffffffffffffffff1673ffffffffffffffffffffffffffffffffffffffff1681526020019060010190808311610503575b505050505091505092915050565b5f805f805f805f808860015481106105a7576040517f08c379a000000000000000000000000000000000000000000000000000000000815260040161059e90612a47565b60405180910390fd5b5f60025f8c81526020019081526020015f209050805f01548160010154826002015483600301548460060154856004015f9054906101000a900460ff1686600d015487600e0154995099509950995099509950995099505050919395975091939597565b806001548110610650576040517f08c379a000000000000000000000000000000000000000000000000000000000815260040161064790612a47565b60405180910390fd5b5f60025f8481526020019081526020015f2090505f600281111561067757610676612678565b5b816004015f9054906101000a900460ff16600281111561069a57610699612678565b5b146106da576040517f08c379a00000000000000000000000000000000000000000000000000000000081526004016106d190612b3d565b60405180910390fd5b805f0154341461071f576040517f08c379a000000000000000000000000000000000000000000000000000000000815260040161071690612ba5565b60405180910390fd5b8060010154816002015410610769576040517f08c379a000000000000000000000000000000000000000000000000000000000815260040161076090612c0d565b60405180910390fd5b5f73ffffffffffffffffffffffffffffffffffffffff16816005015f3373ffffffffffffffffffffffffffffffffffffffff1673ffffffffffffffffffffffffffffffffffffffff1681526020019081526020015f205f015f9054906101000a900473ffffffffffffffffffffffffffffffffffffffff1673ffffffffffffffffffffffffffffffffffffffff1614610837576040517f08c379a000000000000000000000000000000000000000000000000000000000815260040161082e90612c9b565b60405180910390fd5b5f816005015f3373ffffffffffffffffffffffffffffffffffffffff1673ffffffffffffffffffffffffffffffffffffffff1681526020019081526020015f20905033815f015f6101000a81548173ffffffffffffffffffffffffffffffffffffffff021916908373ffffffffffffffffffffffffffffffffffffffff16021790555034826003015f8282546108cd9190612ce6565b92505081905550816002015f8154809291906108e890612d19565b91905055508160070133908060018154018082558091505060019003905f5260205f20015f9091909190916101000a81548173ffffffffffffffffffffffffffffffffffffffff021916908373ffffffffffffffffffffffffffffffffffffffff1602179055505f815f0160146101000a81548160ff0219169083600281111561097557610974612678565b5b02179055505f815f0160156101000a81548160ff0219169083151502179055505f815f0160166101000a81548160ff02191690831515021790555081600101548260020154036109f9576001826004015f6101000a81548160ff021916908360028111156109e6576109e5612678565b5b0217905550816002015482600e01819055505b7f87969bc7faf902221a147b95ceba76e011c5efb0339a0a8ee7a2bb82d9cfbbd684825f015f9054906101000a900473ffffffffffffffffffffffffffffffffffffffff16604051610a4c929190612d60565b60405180910390a150505050565b816001548110610a9f576040517f08c379a0000000000000000000000000000000000000000000000000000000008152600401610a9690612a47565b60405180910390fd5b5f60025f8581526020019081526020015f2090505f816005015f3373ffffffffffffffffffffffffffffffffffffffff1673ffffffffffffffffffffffffffffffffffffffff1681526020019081526020015f20905060016002811115610b0957610b08612678565b5b826004015f9054906101000a900460ff166002811115610b2c57610b2b612678565b5b14610b6c576040517f08c379a0000000000000000000000000000000000000000000000000000000008152600401610b6390612dd1565b60405180910390fd5b805f0160159054906101000a900460ff1615610bbd576040517f08c379a0000000000000000000000000000000000000000000000000000000008152600401610bb490612e39565b60405180910390fd5b816008015f836006015481526020019081526020015f205f3373ffffffffffffffffffffffffffffffffffffffff1673ffffffffffffffffffffffffffffffffffffffff1681526020019081526020015f205f9054906101000a900460ff1615610c5c576040517f08c379a0000000000000000000000000000000000000000000000000000000008152600401610c5390612ec7565b60405180910390fd5b6001826008015f846006015481526020019081526020015f205f3373ffffffffffffffffffffffffffffffffffffffff1673ffffffffffffffffffffffffffffffffffffffff1681526020019081526020015f205f6101000a81548160ff02191690831515021790555083826009015f846006015481526020019081526020015f205f3373ffffffffffffffffffffffffffffffffffffffff1673ffffffffffffffffffffffffffffffffffffffff1681526020019081526020015f205f6101000a81548160ff02191690836002811115610d3a57610d39612678565b5b021790555060016002811115610d5357610d52612678565b5b846002811115610d6657610d65612678565b5b03610d985781600a015f836006015481526020019081526020015f205f815480929190610d9290612d19565b91905055505b600280811115610dab57610daa612678565b5b846002811115610dbe57610dbd612678565b5b03610df05781600b015f836006015481526020019081526020015f205f815480929190610dea90612d19565b91905055505b5f600190505f5b8360070180549050811015610f21575f846007018281548110610e1d57610e1c612ee5565b5b905f5260205f20015f9054906101000a900473ffffffffffffffffffffffffffffffffffffffff169050846005015f8273ffffffffffffffffffffffffffffffffffffffff1673ffffffffffffffffffffffffffffffffffffffff1681526020019081526020015f205f0160159054906101000a900460ff16158015610eff5750846008015f866006015481526020019081526020015f205f8273ffffffffffffffffffffffffffffffffffffffff1673ffffffffffffffffffffffffffffffffffffffff1681526020019081526020015f205f9054906101000a900460ff16155b15610f0d575f925050610f21565b508080610f1990612d19565b915050610df7565b508015610f3757610f36868460060154611bd9565b5b505050505050565b610f4761233a565b610f505f6123c1565b565b610f5a61233a565b5f8203610f93576040517f732794e400000000000000000000000000000000000000000000000000000000815260040160405180910390fd5b5f60015f815480929190610fa690612d19565b9190505590505f60025f8381526020019081526020015f20905083815f01819055508281600101819055505f81600201819055505f81600301819055505f816004015f6101000a81548160ff0219169083600281111561100957611008612678565b5b021790555060018160060181905550600a8311611042576001831161102f576001611032565b60025b60ff1681600d018190555061104d565b600381600d01819055505b7f6a0c7fbf44f6331867816b75328f586816c7ff60b5f3b71d7ccd1da786a9389882858560405161108093929190612f12565b60405180910390a150505050565b5f805f9054906101000a900473ffffffffffffffffffffffffffffffffffffffff16905090565b5f805f808560015481106110fe576040517f08c379a00000000000000000000000000000000000000000000000000000000081526004016110f590612a47565b60405180910390fd5b5f60025f8981526020019081526020015f2090505f816005015f8973ffffffffffffffffffffffffffffffffffffffff1673ffffffffffffffffffffffffffffffffffffffff1681526020019081526020015f2090505f73ffffffffffffffffffffffffffffffffffffffff16815f015f9054906101000a900473ffffffffffffffffffffffffffffffffffffffff1673ffffffffffffffffffffffffffffffffffffffff1614159650805f0160159054906101000a900460ff1695506002808111156111ce576111cd612678565b5b826004015f9054906101000a900460ff1660028111156111f1576111f0612678565b5b1480156112045750611203898961153e565b5b9450805f0160169054906101000a900460ff16935050505092959194509250565b606081600154811061126c576040517f08c379a000000000000000000000000000000000000000000000000000000000815260040161126390612a47565b60405180910390fd5b60028081111561127f5761127e612678565b5b60025f8581526020019081526020015f206004015f9054906101000a900460ff1660028111156112b2576112b1612678565b5b146112f2576040517f08c379a00000000000000000000000000000000000000000000000000000000081526004016112e990612fb7565b60405180910390fd5b60025f8481526020019081526020015f2060110180548060200260200160405190810160405280929190818152602001828054801561138357602002820191905f5260205f20905b815f9054906101000a900473ffffffffffffffffffffffffffffffffffffffff1673ffffffffffffffffffffffffffffffffffffffff168152602001906001019080831161133a575b5050505050915050919050565b6002602052805f5260405f205f91509050805f015490806001015490806002015490806003015490806004015f9054906101000a900460ff169080600601549080600d01549080600e015490806012015f9054906101000a900460ff16905089565b6060826001548110611439576040517f08c379a000000000000000000000000000000000000000000000000000000000815260040161143090612a47565b60405180910390fd5b60025f8581526020019081526020015f2060060154831115611490576040517f08c379a000000000000000000000000000000000000000000000000000000000815260040161148790612aaf565b60405180910390fd5b60025f8581526020019081526020015f20600f015f8481526020019081526020015f2080548060200260200160405190810160405280929190818152602001828054801561153057602002820191905f5260205f20905b815f9054906101000a900473ffffffffffffffffffffffffffffffffffffffff1673ffffffffffffffffffffffffffffffffffffffff16815260200190600101908083116114e7575b505050505091505092915050565b5f826001548110611584576040517f08c379a000000000000000000000000000000000000000000000000000000000815260040161157b90612a47565b60405180910390fd5b5f60025f8681526020019081526020015f2090506002808111156115ab576115aa612678565b5b816004015f9054906101000a900460ff1660028111156115ce576115cd612678565b5b1461160e576040517f08c379a000000000000000000000000000000000000000000000000000000000815260040161160590613045565b60405180910390fd5b5f5b81601101805490508110156116ad578473ffffffffffffffffffffffffffffffffffffffff1682601101828154811061164c5761164b612ee5565b5b905f5260205f20015f9054906101000a900473ffffffffffffffffffffffffffffffffffffffff1673ffffffffffffffffffffffffffffffffffffffff160361169a576001935050506116b3565b80806116a590612d19565b915050611610565b505f9250505b5092915050565b8060015481106116ff576040517f08c379a00000000000000000000000000000000000000000000000000000000081526004016116f690612a47565b60405180910390fd5b5f60025f8481526020019081526020015f2090505f816005015f3373ffffffffffffffffffffffffffffffffffffffff1673ffffffffffffffffffffffffffffffffffffffff1681526020019081526020015f20905060028081111561176857611767612678565b5b826004015f9054906101000a900460ff16600281111561178b5761178a612678565b5b146117cb576040517f08c379a00000000000000000000000000000000000000000000000000000000081526004016117c2906130d3565b60405180910390fd5b6117d5843361153e565b611814576040517f08c379a000000000000000000000000000000000000000000000000000000000815260040161180b9061313b565b60405180910390fd5b805f0160169054906101000a900460ff1615611865576040517f08c379a000000000000000000000000000000000000000000000000000000000815260040161185c906131a3565b60405180910390fd5b6001815f0160166101000a81548160ff0219169083151502179055505f8260110180549050836003015461189991906131ee565b90505f3373ffffffffffffffffffffffffffffffffffffffff16826040516118c09061324b565b5f6040518083038185875af1925050503d805f81146118fa576040519150601f19603f3d011682016040523d82523d5f602084013e6118ff565b606091505b5050905080611943576040517f08c379a000000000000000000000000000000000000000000000000000000000815260040161193a906132a9565b60405180910390fd5b7f4aa95f981a8337cb337de335b965507da0879c3b49f799d20058e913f5ad2c26863384604051611976939291906132c7565b60405180910390a1505050505050565b5f8360015481106119cc576040517f08c379a00000000000000000000000000000000000000000000000000000000081526004016119c390612a47565b60405180910390fd5b60025f8681526020019081526020015f2060060154841115611a23576040517f08c379a0000000000000000000000000000000000000000000000000000000008152600401611a1a90612aaf565b60405180910390fd5b5f60025f8781526020019081526020015f20600f015f8681526020019081526020015f20805480602002602001604051908101604052809291908181526020018280548015611ac457602002820191905f5260205f20905b815f9054906101000a900473ffffffffffffffffffffffffffffffffffffffff1673ffffffffffffffffffffffffffffffffffffffff1681526020019060010190808311611a7b575b505050505090505f5b8151811015611b41578473ffffffffffffffffffffffffffffffffffffffff16828281518110611b0057611aff612ee5565b5b602002602001015173ffffffffffffffffffffffffffffffffffffffff1603611b2e57600193505050611b47565b8080611b3990612d19565b915050611acd565b505f9250505b509392505050565b611b5761233a565b5f73ffffffffffffffffffffffffffffffffffffffff168173ffffffffffffffffffffffffffffffffffffffff1603611bc7575f6040517f1e4fbdf7000000000000000000000000000000000000000000000000000000008152600401611bbe91906127d7565b60405180910390fd5b611bd0816123c1565b50565b60015481565b816001548110611c1e576040517f08c379a0000000000000000000000000000000000000000000000000000000008152600401611c1590612a47565b60405180910390fd5b5f60025f8581526020019081526020015f20905060016002811115611c4657611c45612678565b5b816004015f9054906101000a900460ff166002811115611c6957611c68612678565b5b14611ca9576040517f08c379a0000000000000000000000000000000000000000000000000000000008152600401611ca090613346565b60405180910390fd5b80600c015f8481526020019081526020015f205f9054906101000a900460ff1615611d09576040517f08c379a0000000000000000000000000000000000000000000000000000000008152600401611d00906133ae565b60405180910390fd5b5f81600a015f8581526020019081526020015f205490505f82600b015f8681526020019081526020015f205490505f81831015611d495760019050611d60565b82821015611d5a5760029050611d5f565b600190505b5b83600f015f8781526020019081526020015f205f611d7e9190612489565b836010015f8781526020019081526020015f205f611d9c9190612489565b5f805b8560070180549050811015612071575f866007018281548110611dc557611dc4612ee5565b5b905f5260205f20015f9054906101000a900473ffffffffffffffffffffffffffffffffffffffff1690505f876005015f8373ffffffffffffffffffffffffffffffffffffffff1673ffffffffffffffffffffffffffffffffffffffff1681526020019081526020015f209050805f0160159054906101000a900460ff16158015611ea65750876008015f8b81526020019081526020015f205f8373ffffffffffffffffffffffffffffffffffffffff1673ffffffffffffffffffffffffffffffffffffffff1681526020019081526020015f205f9054906101000a900460ff165b1561205c57846002811115611ebe57611ebd612678565b5b886009015f8c81526020019081526020015f205f8473ffffffffffffffffffffffffffffffffffffffff1673ffffffffffffffffffffffffffffffffffffffff1681526020019081526020015f205f9054906101000a900460ff166002811115611f2b57611f2a612678565b5b14611fdb576001815f0160156101000a81548160ff02191690831515021790555087600e015f815480929190611f60906133cc565b9190505550876010015f8b81526020019081526020015f2082908060018154018082558091505060019003905f5260205f20015f9091909190916101000a81548173ffffffffffffffffffffffffffffffffffffffff021916908373ffffffffffffffffffffffffffffffffffffffff16021790555061205b565b8380611fe690612d19565b94505087600f015f8b81526020019081526020015f2082908060018154018082558091505060019003905f5260205f20015f9091909190916101000a81548173ffffffffffffffffffffffffffffffffffffffff021916908373ffffffffffffffffffffffffffffffffffffffff1602179055505b5b5050808061206990612d19565b915050611d9f565b50600185600c015f8981526020019081526020015f205f6101000a81548160ff0219169083151502179055507f2be3106b53bd15468237edc7011ab1d99e7170fdd628cca450f28540e05be2288888846040516120d093929190613439565b60405180910390a17f248ff69b601613d02a60f6b85e0aeea5d3be00940b13cfd3ad0e8bed6eb5f014888887600f015f8b81526020019081526020015f2060405161211d9392919061354e565b60405180910390a17f75e9783d59a699c285a319f879249a3747bf9c649cfe19c064ecd5c78a5b22c68888876010015f8b81526020019081526020015f2060405161216a9392919061354e565b60405180910390a184600d015481111580612186575060018111155b15612316576002856004015f6101000a81548160ff021916908360028111156121b2576121b1612678565b5b02179055505f5b85600701805490508110156122d3575f8660070182815481106121df576121de612ee5565b5b905f5260205f20015f9054906101000a900473ffffffffffffffffffffffffffffffffffffffff169050866005015f8273ffffffffffffffffffffffffffffffffffffffff1673ffffffffffffffffffffffffffffffffffffffff1681526020019081526020015f205f0160159054906101000a900460ff166122bf578660110181908060018154018082558091505060019003905f5260205f20015f9091909190916101000a81548173ffffffffffffffffffffffffffffffffffffffff021916908373ffffffffffffffffffffffffffffffffffffffff1602179055505b5080806122cb90612d19565b9150506121b9565b507fe6e3f8167a0352c51f4a5dc639deb5c5679ccf396f92c55db62037faa0a2351288866003015460405161230992919061358a565b60405180910390a1612330565b846006015f81548092919061232a90612d19565b91905055505b5050505050505050565b612342612482565b73ffffffffffffffffffffffffffffffffffffffff1661236061108e565b73ffffffffffffffffffffffffffffffffffffffff16146123bf57612383612482565b6040517f118cdaa70000000000000000000000000000000000000000000000000000000081526004016123b691906127d7565b60405180910390fd5b565b5f805f9054906101000a900473ffffffffffffffffffffffffffffffffffffffff169050815f806101000a81548173ffffffffffffffffffffffffffffffffffffffff021916908373ffffffffffffffffffffffffffffffffffffffff1602179055508173ffffffffffffffffffffffffffffffffffffffff168173ffffffffffffffffffffffffffffffffffffffff167f8be0079c531659141344cd1fd0a4f28419497f9722a3daafe3b4186f6b6457e060405160405180910390a35050565b5f33905090565b5080545f8255905f5260205f20908101906124a491906124a7565b50565b5b808211156124be575f815f9055506001016124a8565b5090565b5f80fd5b5f819050919050565b6124d8816124c6565b81146124e2575f80fd5b50565b5f813590506124f3816124cf565b92915050565b5f806040838503121561250f5761250e6124c2565b5b5f61251c858286016124e5565b925050602061252d858286016124e5565b9150509250929050565b5f81519050919050565b5f82825260208201905092915050565b5f819050602082019050919050565b5f73ffffffffffffffffffffffffffffffffffffffff82169050919050565b5f61258982612560565b9050919050565b6125998161257f565b82525050565b5f6125aa8383612590565b60208301905092915050565b5f602082019050919050565b5f6125cc82612537565b6125d68185612541565b93506125e183612551565b805f5b838110156126115781516125f8888261259f565b9750612603836125b6565b9250506001810190506125e4565b5085935050505092915050565b5f6020820190508181035f83015261263681846125c2565b905092915050565b5f60208284031215612653576126526124c2565b5b5f612660848285016124e5565b91505092915050565b612672816124c6565b82525050565b7f4e487b71000000000000000000000000000000000000000000000000000000005f52602160045260245ffd5b600381106126b6576126b5612678565b5b50565b5f8190506126c6826126a5565b919050565b5f6126d5826126b9565b9050919050565b6126e5816126cb565b82525050565b5f610100820190506126ff5f83018b612669565b61270c602083018a612669565b6127196040830189612669565b6127266060830188612669565b6127336080830187612669565b61274060a08301866126dc565b61274d60c0830185612669565b61275a60e0830184612669565b9998505050505050505050565b60038110612773575f80fd5b50565b5f8135905061278481612767565b92915050565b5f80604083850312156127a05761279f6124c2565b5b5f6127ad858286016124e5565b92505060206127be85828601612776565b9150509250929050565b6127d18161257f565b82525050565b5f6020820190506127ea5f8301846127c8565b92915050565b6127f98161257f565b8114612803575f80fd5b50565b5f81359050612814816127f0565b92915050565b5f80604083850312156128305761282f6124c2565b5b5f61283d858286016124e5565b925050602061284e85828601612806565b9150509250929050565b5f8115159050919050565b61286c81612858565b82525050565b5f6080820190506128855f830187612863565b6128926020830186612863565b61289f6040830185612863565b6128ac6060830184612863565b95945050505050565b5f610120820190506128c95f83018c612669565b6128d6602083018b612669565b6128e3604083018a612669565b6128f06060830189612669565b6128fd60808301886126dc565b61290a60a0830187612669565b61291760c0830186612669565b61292460e0830185612669565b612932610100830184612863565b9a9950505050505050505050565b5f6020820190506129535f830184612863565b92915050565b5f805f606084860312156129705761296f6124c2565b5b5f61297d868287016124e5565b935050602061298e868287016124e5565b925050604061299f86828701612806565b9150509250925092565b5f602082840312156129be576129bd6124c2565b5b5f6129cb84828501612806565b91505092915050565b5f6020820190506129e75f830184612669565b92915050565b5f82825260208201905092915050565b7f506f6f6c20646f6573206e6f74206578697374000000000000000000000000005f82015250565b5f612a316013836129ed565b9150612a3c826129fd565b602082019050919050565b5f6020820190508181035f830152612a5e81612a25565b9050919050565b7f526f756e6420646f6573206e6f742065786973740000000000000000000000005f82015250565b5f612a996014836129ed565b9150612aa482612a65565b602082019050919050565b5f6020820190508181035f830152612ac681612a8d565b9050919050565b7f54686520506f6f6c206973206e6f7420796574206f70656e656420666f7220705f8201527f617274696369706174696f6e0000000000000000000000000000000000000000602082015250565b5f612b27602c836129ed565b9150612b3282612acd565b604082019050919050565b5f6020820190508181035f830152612b5481612b1b565b9050919050565b7f456e74727920666565206973206e6f74206d65740000000000000000000000005f82015250565b5f612b8f6014836129ed565b9150612b9a82612b5b565b602082019050919050565b5f6020820190508181035f830152612bbc81612b83565b9050919050565b7f54686520706f6f6c20697320616c72656164792066756c6c00000000000000005f82015250565b5f612bf76018836129ed565b9150612c0282612bc3565b602082019050919050565b5f6020820190508181035f830152612c2481612beb565b9050919050565b7f506c617965722068617320616c7265616479206a6f696e6564207468697320705f8201527f6f6f6c0000000000000000000000000000000000000000000000000000000000602082015250565b5f612c856023836129ed565b9150612c9082612c2b565b604082019050919050565b5f6020820190508181035f830152612cb281612c79565b9050919050565b7f4e487b71000000000000000000000000000000000000000000000000000000005f52601160045260245ffd5b5f612cf0826124c6565b9150612cfb836124c6565b9250828201905080821115612d1357612d12612cb9565b5b92915050565b5f612d23826124c6565b91507fffffffffffffffffffffffffffffffffffffffffffffffffffffffffffffffff8203612d5557612d54612cb9565b5b600182019050919050565b5f604082019050612d735f830185612669565b612d8060208301846127c8565b9392505050565b7f506f6f6c2068617320746f2062652061637469766500000000000000000000005f82015250565b5f612dbb6015836129ed565b9150612dc682612d87565b602082019050919050565b5f6020820190508181035f830152612de881612daf565b9050919050565b7f506c6179657220697320656c696d696e617465640000000000000000000000005f82015250565b5f612e236014836129ed565b9150612e2e82612def565b602082019050919050565b5f6020820190508181035f830152612e5081612e17565b9050919050565b7f416c7265616479206d61646520612073656c656374696f6e20666f72207468695f8201527f7320726f756e6400000000000000000000000000000000000000000000000000602082015250565b5f612eb16027836129ed565b9150612ebc82612e57565b604082019050919050565b5f6020820190508181035f830152612ede81612ea5565b9050919050565b7f4e487b71000000000000000000000000000000000000000000000000000000005f52603260045260245ffd5b5f606082019050612f255f830186612669565b612f326020830185612669565b612f3f6040830184612669565b949350505050565b7f506f6f6c206d75737420626520636f6d706c6574656420746f206765742066695f8201527f6e616c2077696e6e657273000000000000000000000000000000000000000000602082015250565b5f612fa1602b836129ed565b9150612fac82612f47565b604082019050919050565b5f6020820190508181035f830152612fce81612f95565b9050919050565b7f506f6f6c206d75737420626520636f6d706c6574656420746f2064657465726d5f8201527f696e652077696e6e657273000000000000000000000000000000000000000000602082015250565b5f61302f602b836129ed565b915061303a82612fd5565b604082019050919050565b5f6020820190508181035f83015261305c81613023565b9050919050565b7f506f6f6c206d75737420626520636f6d706c6574656420746f20636c61696d205f8201527f7072697a65000000000000000000000000000000000000000000000000000000602082015250565b5f6130bd6025836129ed565b91506130c882613063565b604082019050919050565b5f6020820190508181035f8301526130ea816130b1565b9050919050565b7f4f6e6c792077696e6e6572732063616e20636c61696d207072697a65730000005f82015250565b5f613125601d836129ed565b9150613130826130f1565b602082019050919050565b5f6020820190508181035f83015261315281613119565b9050919050565b7f5072697a6520616c726561647920636c61696d656400000000000000000000005f82015250565b5f61318d6015836129ed565b915061319882613159565b602082019050919050565b5f6020820190508181035f8301526131ba81613181565b9050919050565b7f4e487b71000000000000000000000000000000000000000000000000000000005f52601260045260245ffd5b5f6131f8826124c6565b9150613203836124c6565b925082613213576132126131c1565b5b828204905092915050565b5f81905092915050565b50565b5f6132365f8361321e565b915061324182613228565b5f82019050919050565b5f6132558261322b565b9150819050919050565b7f5072697a65207472616e73666572206661696c656400000000000000000000005f82015250565b5f6132936015836129ed565b915061329e8261325f565b602082019050919050565b5f6020820190508181035f8301526132c081613287565b9050919050565b5f6060820190506132da5f830186612669565b6132e760208301856127c8565b6132f46040830184612669565b949350505050565b7f506f6f6c206d75737420626520616374697665000000000000000000000000005f82015250565b5f6133306013836129ed565b915061333b826132fc565b602082019050919050565b5f6020820190508181035f83015261335d81613324565b9050919050565b7f526f756e6420616c726561647920636f6d706c657465640000000000000000005f82015250565b5f6133986017836129ed565b91506133a382613364565b602082019050919050565b5f6020820190508181035f8301526133c58161338c565b9050919050565b5f6133d6826124c6565b91505f82036133e8576133e7612cb9565b5b600182039050919050565b6003811061340457613403612678565b5b50565b5f819050613414826133f3565b919050565b5f61342382613407565b9050919050565b61343381613419565b82525050565b5f60608201905061344c5f830186612669565b6134596020830185612669565b613466604083018461342a565b949350505050565b5f81549050919050565b5f819050815f5260205f209050919050565b5f815f1c9050919050565b5f73ffffffffffffffffffffffffffffffffffffffff82169050919050565b5f6134c66134c18361348a565b613495565b9050919050565b5f6134d882546134b4565b9050919050565b5f600182019050919050565b5f6134f58261346e565b6134ff8185612541565b935061350a83613478565b805f5b838110156135415761351e826134cd565b613528888261259f565b9750613533836134df565b92505060018101905061350d565b5085935050505092915050565b5f6060820190506135615f830186612669565b61356e6020830185612669565b818103604083015261358081846134eb565b9050949350505050565b5f60408201905061359d5f830185612669565b6135aa6020830184612669565b939250505056fea2646970667358221220822c10fad21cf2c06d5c5bbfae10795b8adabe1e5bd50d3134c07055f81d09c964736f6c63430008140033","linkReferences":{}},"methodIdentifiers":{"claimPrize(uint256)":"d7098154","createPool(uint256,uint256)":"74a110c2","didPlayerWinRound(uint256,uint256,address)":"f1aa668a","getFinalWinners(uint256)":"9a5b5a96","getPlayerStatus(uint256,address)":"958b3bd3","getPoolInfo(uint256)":"2f380b35","getRoundLosers(uint256,uint256)":"04ad1ade","getRoundWinners(uint256,uint256)":"b78ae7e0","isPlayerWinner(uint256,address)":"c1f94796","joinPool(uint256)":"34e7a19f","makeSelection(uint256,uint8)":"61a8694a","owner()":"8da5cb5b","poolCount()":"f525cb68","pools(uint256)":"ac4afa38","renounceOwnership()":"715018a6","transferOwnership(address)":"f2fde38b"},"id":23}