{"abi":[{"type":"constructor","inputs":[],"stateMutability":"nonpayable"},{"type":"function","name":"claimPrize","inputs":[{"name":"_poolId","type":"uint256","internalType":"uint256"}],"outputs":[],"stateMutability":"nonpayable"},{"type":"function","name":"createPool","inputs":[{"name":"_entryFee","type":"uint256","internalType":"uint256"},{"name":"_maxParticipants","type":"uint256","internalType":"uint256"}],"outputs":[],"stateMutability":"nonpayable"},{"type":"function","name":"didPlayerWinRound","inputs":[{"name":"_poolId","type":"uint256","internalType":"uint256"},{"name":"_round","type":"uint256","internalType":"uint256"},{"name":"_playerAddress","type":"address","internalType":"address"}],"outputs":[{"name":"","type":"bool","internalType":"bool"}],"stateMutability":"view"},{"type":"function","name":"getAllPools","inputs":[],"outputs":[{"name":"","type":"tuple[]","internalType":"struct CoinToss.PoolInfo[]","components":[{"name":"poolId","type":"uint256","internalType":"uint256"},{"name":"entryFee","type":"uint256","internalType":"uint256"},{"name":"maxParticipants","type":"uint256","internalType":"uint256"},{"name":"currentParticipants","type":"uint256","internalType":"uint256"},{"name":"prizePool","type":"uint256","internalType":"uint256"},{"name":"status","type":"uint8","internalType":"enum CoinToss.PoolStatus"}]}],"stateMutability":"view"},{"type":"function","name":"getFinalWinners","inputs":[{"name":"_poolId","type":"uint256","internalType":"uint256"}],"outputs":[{"name":"","type":"address[]","internalType":"address[]"}],"stateMutability":"view"},{"type":"function","name":"getPlayerStatus","inputs":[{"name":"_poolId","type":"uint256","internalType":"uint256"},{"name":"_player","type":"address","internalType":"address"}],"outputs":[{"name":"isParticipant","type":"bool","internalType":"bool"},{"name":"isEliminated","type":"bool","internalType":"bool"},{"name":"isWinner","type":"bool","internalType":"bool"},{"name":"hasClaimed","type":"bool","internalType":"bool"}],"stateMutability":"view"},{"type":"function","name":"getPoolInfo","inputs":[{"name":"_poolId","type":"uint256","internalType":"uint256"}],"outputs":[{"name":"entryFee","type":"uint256","internalType":"uint256"},{"name":"maxParticipants","type":"uint256","internalType":"uint256"},{"name":"currentParticipants","type":"uint256","internalType":"uint256"},{"name":"prizePool","type":"uint256","internalType":"uint256"},{"name":"currentRound","type":"uint256","internalType":"uint256"},{"name":"status","type":"uint8","internalType":"enum CoinToss.PoolStatus"},{"name":"maxWinners","type":"uint256","internalType":"uint256"},{"name":"currentActiveParticipants","type":"uint256","internalType":"uint256"}],"stateMutability":"view"},{"type":"function","name":"getRoundLosers","inputs":[{"name":"_poolId","type":"uint256","internalType":"uint256"},{"name":"_round","type":"uint256","internalType":"uint256"}],"outputs":[{"name":"","type":"address[]","internalType":"address[]"}],"stateMutability":"view"},{"type":"function","name":"getRoundWinners","inputs":[{"name":"_poolId","type":"uint256","internalType":"uint256"},{"name":"_round","type":"uint256","internalType":"uint256"}],"outputs":[{"name":"","type":"address[]","internalType":"address[]"}],"stateMutability":"view"},{"type":"function","name":"isPlayerWinner","inputs":[{"name":"_poolId","type":"uint256","internalType":"uint256"},{"name":"_player","type":"address","internalType":"address"}],"outputs":[{"name":"","type":"bool","internalType":"bool"}],"stateMutability":"view"},{"type":"function","name":"joinPool","inputs":[{"name":"_poolId","type":"uint256","internalType":"uint256"}],"outputs":[],"stateMutability":"payable"},{"type":"function","name":"makeSelection","inputs":[{"name":"_poolId","type":"uint256","internalType":"uint256"},{"name":"_choice","type":"uint8","internalType":"enum CoinToss.PlayerChoice"}],"outputs":[],"stateMutability":"nonpayable"},{"type":"function","name":"owner","inputs":[],"outputs":[{"name":"","type":"address","internalType":"address"}],"stateMutability":"view"},{"type":"function","name":"poolCount","inputs":[],"outputs":[{"name":"","type":"uint256","internalType":"uint256"}],"stateMutability":"view"},{"type":"function","name":"pools","inputs":[{"name":"","type":"uint256","internalType":"uint256"}],"outputs":[{"name":"entryFee","type":"uint256","internalType":"uint256"},{"name":"maxParticipants","type":"uint256","internalType":"uint256"},{"name":"currentParticipants","type":"uint256","internalType":"uint256"},{"name":"prizePool","type":"uint256","internalType":"uint256"},{"name":"status","type":"uint8","internalType":"enum CoinToss.PoolStatus"},{"name":"currentRound","type":"uint256","internalType":"uint256"},{"name":"maxWinners","type":"uint256","internalType":"uint256"},{"name":"currentActiveParticipants","type":"uint256","internalType":"uint256"},{"name":"prizeClaimed","type":"bool","internalType":"bool"}],"stateMutability":"view"},{"type":"function","name":"renounceOwnership","inputs":[],"outputs":[],"stateMutability":"nonpayable"},{"type":"function","name":"transferOwnership","inputs":[{"name":"newOwner","type":"address","internalType":"address"}],"outputs":[],"stateMutability":"nonpayable"},{"type":"event","name":"OwnershipTransferred","inputs":[{"name":"previousOwner","type":"address","indexed":true,"internalType":"address"},{"name":"newOwner","type":"address","indexed":true,"internalType":"address"}],"anonymous":false},{"type":"event","name":"PlayerJoined","inputs":[{"name":"poolId","type":"uint256","indexed":false,"internalType":"uint256"},{"name":"playerThatJoined","type":"address","indexed":false,"internalType":"address"}],"anonymous":false},{"type":"event","name":"PoolCompleted","inputs":[{"name":"poolId","type":"uint256","indexed":false,"internalType":"uint256"},{"name":"prizePool","type":"uint256","indexed":false,"internalType":"uint256"}],"anonymous":false},{"type":"event","name":"PoolCreated","inputs":[{"name":"poolId","type":"uint256","indexed":false,"internalType":"uint256"},{"name":"entryFee","type":"uint256","indexed":false,"internalType":"uint256"},{"name":"maxParticipants","type":"uint256","indexed":false,"internalType":"uint256"}],"anonymous":false},{"type":"event","name":"PrizeClaimed","inputs":[{"name":"poolId","type":"uint256","indexed":false,"internalType":"uint256"},{"name":"player","type":"address","indexed":false,"internalType":"address"},{"name":"prizeAmount","type":"uint256","indexed":false,"internalType":"uint256"}],"anonymous":false},{"type":"event","name":"RoundCompleted","inputs":[{"name":"poolId","type":"uint256","indexed":false,"internalType":"uint256"},{"name":"round","type":"uint256","indexed":false,"internalType":"uint256"},{"name":"","type":"uint8","indexed":false,"internalType":"enum CoinToss.PlayerChoice"}],"anonymous":false},{"type":"event","name":"RoundLosers","inputs":[{"name":"poolId","type":"uint256","indexed":false,"internalType":"uint256"},{"name":"round","type":"uint256","indexed":false,"internalType":"uint256"},{"name":"roundWinners","type":"address[]","indexed":false,"internalType":"address[]"}],"anonymous":false},{"type":"event","name":"RoundWinners","inputs":[{"name":"poolId","type":"uint256","indexed":false,"internalType":"uint256"},{"name":"round","type":"uint256","indexed":false,"internalType":"uint256"},{"name":"roundWinners","type":"address[]","indexed":false,"internalType":"address[]"}],"anonymous":false},{"type":"error","name":"EntryFeeMustBeGreaterThanZero","inputs":[]},{"type":"error","name":"OwnableInvalidOwner","inputs":[{"name":"owner","type":"address","internalType":"address"}]},{"type":"error","name":"OwnableUnauthorizedAccount","inputs":[{"name":"account","type":"address","internalType":"address"}]}],"bytecode":{"object":"0x608060405234801562000010575f80fd5b50335f73ffffffffffffffffffffffffffffffffffffffff168173ffffffffffffffffffffffffffffffffffffffff160362000085575f6040517f1e4fbdf70000000000000000000000000000000000000000000000000000000081526004016200007c9190620001a8565b60405180910390fd5b6200009681620000a460201b60201c565b505f600181905550620001c3565b5f805f9054906101000a900473ffffffffffffffffffffffffffffffffffffffff169050815f806101000a81548173ffffffffffffffffffffffffffffffffffffffff021916908373ffffffffffffffffffffffffffffffffffffffff1602179055508173ffffffffffffffffffffffffffffffffffffffff168173ffffffffffffffffffffffffffffffffffffffff167f8be0079c531659141344cd1fd0a4f28419497f9722a3daafe3b4186f6b6457e060405160405180910390a35050565b5f73ffffffffffffffffffffffffffffffffffffffff82169050919050565b5f620001908262000165565b9050919050565b620001a28162000184565b82525050565b5f602082019050620001bd5f83018462000197565b92915050565b6138fd80620001d15f395ff3fe6080604052600436106100fd575f3560e01c80639a5b5a9611610094578063d709815411610063578063d709815414610363578063d88ff1f41461038b578063f1aa668a146103b5578063f2fde38b146103f1578063f525cb6814610419576100fd565b80639a5b5a961461026b578063ac4afa38146102a7578063b78ae7e0146102eb578063c1f9479614610327576100fd565b8063715018a6116100d0578063715018a6146101c457806374a110c2146101da5780638da5cb5b14610202578063958b3bd31461022c576100fd565b806304ad1ade146101015780632f380b351461013d57806334e7a19f1461018057806361a8694a1461019c575b5f80fd5b34801561010c575f80fd5b5061012760048036038101906101229190612683565b610443565b60405161013491906127a8565b60405180910390f35b348015610148575f80fd5b50610163600480360381019061015e91906127c8565b61058f565b604051610177989796959493929190612875565b60405180910390f35b61019a600480360381019061019591906127c8565b610640565b005b3480156101a7575f80fd5b506101c260048036038101906101bd9190612914565b610a8f565b005b3480156101cf575f80fd5b506101d8610f74565b005b3480156101e5575f80fd5b5061020060048036038101906101fb9190612683565b610f87565b005b34801561020d575f80fd5b506102166110c3565b6040516102239190612961565b60405180910390f35b348015610237575f80fd5b50610252600480360381019061024d91906129a4565b6110ea565b60405161026294939291906129fc565b60405180910390f35b348015610276575f80fd5b50610291600480360381019061028c91906127c8565b61125a565b60405161029e91906127a8565b60405180910390f35b3480156102b2575f80fd5b506102cd60048036038101906102c891906127c8565b6113c5565b6040516102e299989796959493929190612a3f565b60405180910390f35b3480156102f6575f80fd5b50610311600480360381019061030c9190612683565b611427565b60405161031e91906127a8565b60405180910390f35b348015610332575f80fd5b5061034d600480360381019061034891906129a4565b611573565b60405161035a9190612aca565b60405180910390f35b34801561036e575f80fd5b50610389600480360381019061038491906127c8565b6116ef565b005b348015610396575f80fd5b5061039f6119bb565b6040516103ac9190612c22565b60405180910390f35b3480156103c0575f80fd5b506103db60048036038101906103d69190612c42565b611ace565b6040516103e89190612aca565b60405180910390f35b3480156103fc575f80fd5b5061041760048036038101906104129190612c92565b611c97565b005b348015610424575f80fd5b5061042d611d1b565b60405161043a9190612cbd565b60405180910390f35b606082600154811061048a576040517f08c379a000000000000000000000000000000000000000000000000000000000815260040161048190612d30565b60405180910390fd5b60025f8581526020019081526020015f20600601548311156104e1576040517f08c379a00000000000000000000000000000000000000000000000000000000081526004016104d890612d98565b60405180910390fd5b60025f8581526020019081526020015f206010015f8481526020019081526020015f2080548060200260200160405190810160405280929190818152602001828054801561058157602002820191905f5260205f20905b815f9054906101000a900473ffffffffffffffffffffffffffffffffffffffff1673ffffffffffffffffffffffffffffffffffffffff1681526020019060010190808311610538575b505050505091505092915050565b5f805f805f805f808860015481106105dc576040517f08c379a00000000000000000000000000000000000000000000000000000000081526004016105d390612d30565b60405180910390fd5b5f60025f8c81526020019081526020015f209050805f01548160010154826002015483600301548460060154856004015f9054906101000a900460ff1686600d015487600e0154995099509950995099509950995099505050919395975091939597565b806001548110610685576040517f08c379a000000000000000000000000000000000000000000000000000000000815260040161067c90612d30565b60405180910390fd5b5f60025f8481526020019081526020015f2090505f60028111156106ac576106ab612802565b5b816004015f9054906101000a900460ff1660028111156106cf576106ce612802565b5b1461070f576040517f08c379a000000000000000000000000000000000000000000000000000000000815260040161070690612e26565b60405180910390fd5b805f01543414610754576040517f08c379a000000000000000000000000000000000000000000000000000000000815260040161074b90612e8e565b60405180910390fd5b806001015481600201541061079e576040517f08c379a000000000000000000000000000000000000000000000000000000000815260040161079590612ef6565b60405180910390fd5b5f73ffffffffffffffffffffffffffffffffffffffff16816005015f3373ffffffffffffffffffffffffffffffffffffffff1673ffffffffffffffffffffffffffffffffffffffff1681526020019081526020015f205f015f9054906101000a900473ffffffffffffffffffffffffffffffffffffffff1673ffffffffffffffffffffffffffffffffffffffff161461086c576040517f08c379a000000000000000000000000000000000000000000000000000000000815260040161086390612f84565b60405180910390fd5b5f816005015f3373ffffffffffffffffffffffffffffffffffffffff1673ffffffffffffffffffffffffffffffffffffffff1681526020019081526020015f20905033815f015f6101000a81548173ffffffffffffffffffffffffffffffffffffffff021916908373ffffffffffffffffffffffffffffffffffffffff16021790555034826003015f8282546109029190612fcf565b92505081905550816002015f81548092919061091d90613002565b91905055508160070133908060018154018082558091505060019003905f5260205f20015f9091909190916101000a81548173ffffffffffffffffffffffffffffffffffffffff021916908373ffffffffffffffffffffffffffffffffffffffff1602179055505f815f0160146101000a81548160ff021916908360028111156109aa576109a9612802565b5b02179055505f815f0160156101000a81548160ff0219169083151502179055505f815f0160166101000a81548160ff0219169083151502179055508160010154826002015403610a2e576001826004015f6101000a81548160ff02191690836002811115610a1b57610a1a612802565b5b0217905550816002015482600e01819055505b7f87969bc7faf902221a147b95ceba76e011c5efb0339a0a8ee7a2bb82d9cfbbd684825f015f9054906101000a900473ffffffffffffffffffffffffffffffffffffffff16604051610a81929190613049565b60405180910390a150505050565b816001548110610ad4576040517f08c379a0000000000000000000000000000000000000000000000000000000008152600401610acb90612d30565b60405180910390fd5b5f60025f8581526020019081526020015f2090505f816005015f3373ffffffffffffffffffffffffffffffffffffffff1673ffffffffffffffffffffffffffffffffffffffff1681526020019081526020015f20905060016002811115610b3e57610b3d612802565b5b826004015f9054906101000a900460ff166002811115610b6157610b60612802565b5b14610ba1576040517f08c379a0000000000000000000000000000000000000000000000000000000008152600401610b98906130ba565b60405180910390fd5b805f0160159054906101000a900460ff1615610bf2576040517f08c379a0000000000000000000000000000000000000000000000000000000008152600401610be990613122565b60405180910390fd5b816008015f836006015481526020019081526020015f205f3373ffffffffffffffffffffffffffffffffffffffff1673ffffffffffffffffffffffffffffffffffffffff1681526020019081526020015f205f9054906101000a900460ff1615610c91576040517f08c379a0000000000000000000000000000000000000000000000000000000008152600401610c88906131b0565b60405180910390fd5b6001826008015f846006015481526020019081526020015f205f3373ffffffffffffffffffffffffffffffffffffffff1673ffffffffffffffffffffffffffffffffffffffff1681526020019081526020015f205f6101000a81548160ff02191690831515021790555083826009015f846006015481526020019081526020015f205f3373ffffffffffffffffffffffffffffffffffffffff1673ffffffffffffffffffffffffffffffffffffffff1681526020019081526020015f205f6101000a81548160ff02191690836002811115610d6f57610d6e612802565b5b021790555060016002811115610d8857610d87612802565b5b846002811115610d9b57610d9a612802565b5b03610dcd5781600a015f836006015481526020019081526020015f205f815480929190610dc790613002565b91905055505b600280811115610de057610ddf612802565b5b846002811115610df357610df2612802565b5b03610e255781600b015f836006015481526020019081526020015f205f815480929190610e1f90613002565b91905055505b5f600190505f5b8360070180549050811015610f56575f846007018281548110610e5257610e516131ce565b5b905f5260205f20015f9054906101000a900473ffffffffffffffffffffffffffffffffffffffff169050846005015f8273ffffffffffffffffffffffffffffffffffffffff1673ffffffffffffffffffffffffffffffffffffffff1681526020019081526020015f205f0160159054906101000a900460ff16158015610f345750846008015f866006015481526020019081526020015f205f8273ffffffffffffffffffffffffffffffffffffffff1673ffffffffffffffffffffffffffffffffffffffff1681526020019081526020015f205f9054906101000a900460ff16155b15610f42575f925050610f56565b508080610f4e90613002565b915050610e2c565b508015610f6c57610f6b868460060154611d21565b5b505050505050565b610f7c612482565b610f855f612509565b565b610f8f612482565b5f8203610fc8576040517f732794e400000000000000000000000000000000000000000000000000000000815260040160405180910390fd5b5f60015f815480929190610fdb90613002565b9190505590505f60025f8381526020019081526020015f20905083815f01819055508281600101819055505f81600201819055505f81600301819055505f816004015f6101000a81548160ff0219169083600281111561103e5761103d612802565b5b021790555060018160060181905550600a83116110775760018311611064576001611067565b60025b60ff1681600d0181905550611082565b600381600d01819055505b7f6a0c7fbf44f6331867816b75328f586816c7ff60b5f3b71d7ccd1da786a938988285856040516110b5939291906131fb565b60405180910390a150505050565b5f805f9054906101000a900473ffffffffffffffffffffffffffffffffffffffff16905090565b5f805f80856001548110611133576040517f08c379a000000000000000000000000000000000000000000000000000000000815260040161112a90612d30565b60405180910390fd5b5f60025f8981526020019081526020015f2090505f816005015f8973ffffffffffffffffffffffffffffffffffffffff1673ffffffffffffffffffffffffffffffffffffffff1681526020019081526020015f2090505f73ffffffffffffffffffffffffffffffffffffffff16815f015f9054906101000a900473ffffffffffffffffffffffffffffffffffffffff1673ffffffffffffffffffffffffffffffffffffffff1614159650805f0160159054906101000a900460ff16955060028081111561120357611202612802565b5b826004015f9054906101000a900460ff16600281111561122657611225612802565b5b14801561123957506112388989611573565b5b9450805f0160169054906101000a900460ff16935050505092959194509250565b60608160015481106112a1576040517f08c379a000000000000000000000000000000000000000000000000000000000815260040161129890612d30565b60405180910390fd5b6002808111156112b4576112b3612802565b5b60025f8581526020019081526020015f206004015f9054906101000a900460ff1660028111156112e7576112e6612802565b5b14611327576040517f08c379a000000000000000000000000000000000000000000000000000000000815260040161131e906132a0565b60405180910390fd5b60025f8481526020019081526020015f206011018054806020026020016040519081016040528092919081815260200182805480156113b857602002820191905f5260205f20905b815f9054906101000a900473ffffffffffffffffffffffffffffffffffffffff1673ffffffffffffffffffffffffffffffffffffffff168152602001906001019080831161136f575b5050505050915050919050565b6002602052805f5260405f205f91509050805f015490806001015490806002015490806003015490806004015f9054906101000a900460ff169080600601549080600d01549080600e015490806012015f9054906101000a900460ff16905089565b606082600154811061146e576040517f08c379a000000000000000000000000000000000000000000000000000000000815260040161146590612d30565b60405180910390fd5b60025f8581526020019081526020015f20600601548311156114c5576040517f08c379a00000000000000000000000000000000000000000000000000000000081526004016114bc90612d98565b60405180910390fd5b60025f8581526020019081526020015f20600f015f8481526020019081526020015f2080548060200260200160405190810160405280929190818152602001828054801561156557602002820191905f5260205f20905b815f9054906101000a900473ffffffffffffffffffffffffffffffffffffffff1673ffffffffffffffffffffffffffffffffffffffff168152602001906001019080831161151c575b505050505091505092915050565b5f8260015481106115b9576040517f08c379a00000000000000000000000000000000000000000000000000000000081526004016115b090612d30565b60405180910390fd5b5f60025f8681526020019081526020015f2090506002808111156115e0576115df612802565b5b816004015f9054906101000a900460ff16600281111561160357611602612802565b5b14611643576040517f08c379a000000000000000000000000000000000000000000000000000000000815260040161163a9061332e565b60405180910390fd5b5f5b81601101805490508110156116e2578473ffffffffffffffffffffffffffffffffffffffff16826011018281548110611681576116806131ce565b5b905f5260205f20015f9054906101000a900473ffffffffffffffffffffffffffffffffffffffff1673ffffffffffffffffffffffffffffffffffffffff16036116cf576001935050506116e8565b80806116da90613002565b915050611645565b505f9250505b5092915050565b806001548110611734576040517f08c379a000000000000000000000000000000000000000000000000000000000815260040161172b90612d30565b60405180910390fd5b5f60025f8481526020019081526020015f2090505f816005015f3373ffffffffffffffffffffffffffffffffffffffff1673ffffffffffffffffffffffffffffffffffffffff1681526020019081526020015f20905060028081111561179d5761179c612802565b5b826004015f9054906101000a900460ff1660028111156117c0576117bf612802565b5b14611800576040517f08c379a00000000000000000000000000000000000000000000000000000000081526004016117f7906133bc565b60405180910390fd5b61180a8433611573565b611849576040517f08c379a000000000000000000000000000000000000000000000000000000000815260040161184090613424565b60405180910390fd5b805f0160169054906101000a900460ff161561189a576040517f08c379a00000000000000000000000000000000000000000000000000000000081526004016118919061348c565b60405180910390fd5b6001815f0160166101000a81548160ff0219169083151502179055505f826011018054905083600301546118ce91906134d7565b90505f3373ffffffffffffffffffffffffffffffffffffffff16826040516118f590613534565b5f6040518083038185875af1925050503d805f811461192f576040519150601f19603f3d011682016040523d82523d5f602084013e611934565b606091505b5050905080611978576040517f08c379a000000000000000000000000000000000000000000000000000000000815260040161196f90613592565b60405180910390fd5b7f4aa95f981a8337cb337de335b965507da0879c3b49f799d20058e913f5ad2c268633846040516119ab939291906135b0565b60405180910390a1505050505050565b60605f60015467ffffffffffffffff8111156119da576119d96135e5565b5b604051908082528060200260200182016040528015611a1357816020015b611a006125d1565b8152602001906001900390816119f85790505b5090505f5b600154811015611ac6575f60025f8381526020019081526020015f2090506040518060c00160405280838152602001825f01548152602001826001015481526020018260020154815260200182600301548152602001826004015f9054906101000a900460ff166002811115611a9157611a90612802565b5b815250838381518110611aa757611aa66131ce565b5b6020026020010181905250508080611abe90613002565b915050611a18565b508091505090565b5f836001548110611b14576040517f08c379a0000000000000000000000000000000000000000000000000000000008152600401611b0b90612d30565b60405180910390fd5b60025f8681526020019081526020015f2060060154841115611b6b576040517f08c379a0000000000000000000000000000000000000000000000000000000008152600401611b6290612d98565b60405180910390fd5b5f60025f8781526020019081526020015f20600f015f8681526020019081526020015f20805480602002602001604051908101604052809291908181526020018280548015611c0c57602002820191905f5260205f20905b815f9054906101000a900473ffffffffffffffffffffffffffffffffffffffff1673ffffffffffffffffffffffffffffffffffffffff1681526020019060010190808311611bc3575b505050505090505f5b8151811015611c89578473ffffffffffffffffffffffffffffffffffffffff16828281518110611c4857611c476131ce565b5b602002602001015173ffffffffffffffffffffffffffffffffffffffff1603611c7657600193505050611c8f565b8080611c8190613002565b915050611c15565b505f9250505b509392505050565b611c9f612482565b5f73ffffffffffffffffffffffffffffffffffffffff168173ffffffffffffffffffffffffffffffffffffffff1603611d0f575f6040517f1e4fbdf7000000000000000000000000000000000000000000000000000000008152600401611d069190612961565b60405180910390fd5b611d1881612509565b50565b60015481565b816001548110611d66576040517f08c379a0000000000000000000000000000000000000000000000000000000008152600401611d5d90612d30565b60405180910390fd5b5f60025f8581526020019081526020015f20905060016002811115611d8e57611d8d612802565b5b816004015f9054906101000a900460ff166002811115611db157611db0612802565b5b14611df1576040517f08c379a0000000000000000000000000000000000000000000000000000000008152600401611de89061365c565b60405180910390fd5b80600c015f8481526020019081526020015f205f9054906101000a900460ff1615611e51576040517f08c379a0000000000000000000000000000000000000000000000000000000008152600401611e48906136c4565b60405180910390fd5b5f81600a015f8581526020019081526020015f205490505f82600b015f8681526020019081526020015f205490505f81831015611e915760019050611ea8565b82821015611ea25760029050611ea7565b600190505b5b83600f015f8781526020019081526020015f205f611ec69190612613565b836010015f8781526020019081526020015f205f611ee49190612613565b5f805b85600701805490508110156121b9575f866007018281548110611f0d57611f0c6131ce565b5b905f5260205f20015f9054906101000a900473ffffffffffffffffffffffffffffffffffffffff1690505f876005015f8373ffffffffffffffffffffffffffffffffffffffff1673ffffffffffffffffffffffffffffffffffffffff1681526020019081526020015f209050805f0160159054906101000a900460ff16158015611fee5750876008015f8b81526020019081526020015f205f8373ffffffffffffffffffffffffffffffffffffffff1673ffffffffffffffffffffffffffffffffffffffff1681526020019081526020015f205f9054906101000a900460ff165b156121a45784600281111561200657612005612802565b5b886009015f8c81526020019081526020015f205f8473ffffffffffffffffffffffffffffffffffffffff1673ffffffffffffffffffffffffffffffffffffffff1681526020019081526020015f205f9054906101000a900460ff16600281111561207357612072612802565b5b14612123576001815f0160156101000a81548160ff02191690831515021790555087600e015f8154809291906120a8906136e2565b9190505550876010015f8b81526020019081526020015f2082908060018154018082558091505060019003905f5260205f20015f9091909190916101000a81548173ffffffffffffffffffffffffffffffffffffffff021916908373ffffffffffffffffffffffffffffffffffffffff1602179055506121a3565b838061212e90613002565b94505087600f015f8b81526020019081526020015f2082908060018154018082558091505060019003905f5260205f20015f9091909190916101000a81548173ffffffffffffffffffffffffffffffffffffffff021916908373ffffffffffffffffffffffffffffffffffffffff1602179055505b5b505080806121b190613002565b915050611ee7565b50600185600c015f8981526020019081526020015f205f6101000a81548160ff0219169083151502179055507f2be3106b53bd15468237edc7011ab1d99e7170fdd628cca450f28540e05be2288888846040516122189392919061374f565b60405180910390a17f248ff69b601613d02a60f6b85e0aeea5d3be00940b13cfd3ad0e8bed6eb5f014888887600f015f8b81526020019081526020015f2060405161226593929190613864565b60405180910390a17f75e9783d59a699c285a319f879249a3747bf9c649cfe19c064ecd5c78a5b22c68888876010015f8b81526020019081526020015f206040516122b293929190613864565b60405180910390a184600d0154811115806122ce575060018111155b1561245e576002856004015f6101000a81548160ff021916908360028111156122fa576122f9612802565b5b02179055505f5b856007018054905081101561241b575f866007018281548110612327576123266131ce565b5b905f5260205f20015f9054906101000a900473ffffffffffffffffffffffffffffffffffffffff169050866005015f8273ffffffffffffffffffffffffffffffffffffffff1673ffffffffffffffffffffffffffffffffffffffff1681526020019081526020015f205f0160159054906101000a900460ff16612407578660110181908060018154018082558091505060019003905f5260205f20015f9091909190916101000a81548173ffffffffffffffffffffffffffffffffffffffff021916908373ffffffffffffffffffffffffffffffffffffffff1602179055505b50808061241390613002565b915050612301565b507fe6e3f8167a0352c51f4a5dc639deb5c5679ccf396f92c55db62037faa0a235128886600301546040516124519291906138a0565b60405180910390a1612478565b846006015f81548092919061247290613002565b91905055505b5050505050505050565b61248a6125ca565b73ffffffffffffffffffffffffffffffffffffffff166124a86110c3565b73ffffffffffffffffffffffffffffffffffffffff1614612507576124cb6125ca565b6040517f118cdaa70000000000000000000000000000000000000000000000000000000081526004016124fe9190612961565b60405180910390fd5b565b5f805f9054906101000a900473ffffffffffffffffffffffffffffffffffffffff169050815f806101000a81548173ffffffffffffffffffffffffffffffffffffffff021916908373ffffffffffffffffffffffffffffffffffffffff1602179055508173ffffffffffffffffffffffffffffffffffffffff168173ffffffffffffffffffffffffffffffffffffffff167f8be0079c531659141344cd1fd0a4f28419497f9722a3daafe3b4186f6b6457e060405160405180910390a35050565b5f33905090565b6040518060c001604052805f81526020015f81526020015f81526020015f81526020015f81526020015f600281111561260d5761260c612802565b5b81525090565b5080545f8255905f5260205f209081019061262e9190612631565b50565b5b80821115612648575f815f905550600101612632565b5090565b5f80fd5b5f819050919050565b61266281612650565b811461266c575f80fd5b50565b5f8135905061267d81612659565b92915050565b5f80604083850312156126995761269861264c565b5b5f6126a68582860161266f565b92505060206126b78582860161266f565b9150509250929050565b5f81519050919050565b5f82825260208201905092915050565b5f819050602082019050919050565b5f73ffffffffffffffffffffffffffffffffffffffff82169050919050565b5f612713826126ea565b9050919050565b61272381612709565b82525050565b5f612734838361271a565b60208301905092915050565b5f602082019050919050565b5f612756826126c1565b61276081856126cb565b935061276b836126db565b805f5b8381101561279b5781516127828882612729565b975061278d83612740565b92505060018101905061276e565b5085935050505092915050565b5f6020820190508181035f8301526127c0818461274c565b905092915050565b5f602082840312156127dd576127dc61264c565b5b5f6127ea8482850161266f565b91505092915050565b6127fc81612650565b82525050565b7f4e487b71000000000000000000000000000000000000000000000000000000005f52602160045260245ffd5b600381106128405761283f612802565b5b50565b5f8190506128508261282f565b919050565b5f61285f82612843565b9050919050565b61286f81612855565b82525050565b5f610100820190506128895f83018b6127f3565b612896602083018a6127f3565b6128a360408301896127f3565b6128b060608301886127f3565b6128bd60808301876127f3565b6128ca60a0830186612866565b6128d760c08301856127f3565b6128e460e08301846127f3565b9998505050505050505050565b600381106128fd575f80fd5b50565b5f8135905061290e816128f1565b92915050565b5f806040838503121561292a5761292961264c565b5b5f6129378582860161266f565b925050602061294885828601612900565b9150509250929050565b61295b81612709565b82525050565b5f6020820190506129745f830184612952565b92915050565b61298381612709565b811461298d575f80fd5b50565b5f8135905061299e8161297a565b92915050565b5f80604083850312156129ba576129b961264c565b5b5f6129c78582860161266f565b92505060206129d885828601612990565b9150509250929050565b5f8115159050919050565b6129f6816129e2565b82525050565b5f608082019050612a0f5f8301876129ed565b612a1c60208301866129ed565b612a2960408301856129ed565b612a3660608301846129ed565b95945050505050565b5f61012082019050612a535f83018c6127f3565b612a60602083018b6127f3565b612a6d604083018a6127f3565b612a7a60608301896127f3565b612a876080830188612866565b612a9460a08301876127f3565b612aa160c08301866127f3565b612aae60e08301856127f3565b612abc6101008301846129ed565b9a9950505050505050505050565b5f602082019050612add5f8301846129ed565b92915050565b5f81519050919050565b5f82825260208201905092915050565b5f819050602082019050919050565b612b1581612650565b82525050565b612b2481612855565b82525050565b60c082015f820151612b3e5f850182612b0c565b506020820151612b516020850182612b0c565b506040820151612b646040850182612b0c565b506060820151612b776060850182612b0c565b506080820151612b8a6080850182612b0c565b5060a0820151612b9d60a0850182612b1b565b50505050565b5f612bae8383612b2a565b60c08301905092915050565b5f602082019050919050565b5f612bd082612ae3565b612bda8185612aed565b9350612be583612afd565b805f5b83811015612c15578151612bfc8882612ba3565b9750612c0783612bba565b925050600181019050612be8565b5085935050505092915050565b5f6020820190508181035f830152612c3a8184612bc6565b905092915050565b5f805f60608486031215612c5957612c5861264c565b5b5f612c668682870161266f565b9350506020612c778682870161266f565b9250506040612c8886828701612990565b9150509250925092565b5f60208284031215612ca757612ca661264c565b5b5f612cb484828501612990565b91505092915050565b5f602082019050612cd05f8301846127f3565b92915050565b5f82825260208201905092915050565b7f506f6f6c20646f6573206e6f74206578697374000000000000000000000000005f82015250565b5f612d1a601383612cd6565b9150612d2582612ce6565b602082019050919050565b5f6020820190508181035f830152612d4781612d0e565b9050919050565b7f526f756e6420646f6573206e6f742065786973740000000000000000000000005f82015250565b5f612d82601483612cd6565b9150612d8d82612d4e565b602082019050919050565b5f6020820190508181035f830152612daf81612d76565b9050919050565b7f54686520506f6f6c206973206e6f7420796574206f70656e656420666f7220705f8201527f617274696369706174696f6e0000000000000000000000000000000000000000602082015250565b5f612e10602c83612cd6565b9150612e1b82612db6565b604082019050919050565b5f6020820190508181035f830152612e3d81612e04565b9050919050565b7f456e74727920666565206973206e6f74206d65740000000000000000000000005f82015250565b5f612e78601483612cd6565b9150612e8382612e44565b602082019050919050565b5f6020820190508181035f830152612ea581612e6c565b9050919050565b7f54686520706f6f6c20697320616c72656164792066756c6c00000000000000005f82015250565b5f612ee0601883612cd6565b9150612eeb82612eac565b602082019050919050565b5f6020820190508181035f830152612f0d81612ed4565b9050919050565b7f506c617965722068617320616c7265616479206a6f696e6564207468697320705f8201527f6f6f6c0000000000000000000000000000000000000000000000000000000000602082015250565b5f612f6e602383612cd6565b9150612f7982612f14565b604082019050919050565b5f6020820190508181035f830152612f9b81612f62565b9050919050565b7f4e487b71000000000000000000000000000000000000000000000000000000005f52601160045260245ffd5b5f612fd982612650565b9150612fe483612650565b9250828201905080821115612ffc57612ffb612fa2565b5b92915050565b5f61300c82612650565b91507fffffffffffffffffffffffffffffffffffffffffffffffffffffffffffffffff820361303e5761303d612fa2565b5b600182019050919050565b5f60408201905061305c5f8301856127f3565b6130696020830184612952565b9392505050565b7f506f6f6c2068617320746f2062652061637469766500000000000000000000005f82015250565b5f6130a4601583612cd6565b91506130af82613070565b602082019050919050565b5f6020820190508181035f8301526130d181613098565b9050919050565b7f506c6179657220697320656c696d696e617465640000000000000000000000005f82015250565b5f61310c601483612cd6565b9150613117826130d8565b602082019050919050565b5f6020820190508181035f83015261313981613100565b9050919050565b7f416c7265616479206d61646520612073656c656374696f6e20666f72207468695f8201527f7320726f756e6400000000000000000000000000000000000000000000000000602082015250565b5f61319a602783612cd6565b91506131a582613140565b604082019050919050565b5f6020820190508181035f8301526131c78161318e565b9050919050565b7f4e487b71000000000000000000000000000000000000000000000000000000005f52603260045260245ffd5b5f60608201905061320e5f8301866127f3565b61321b60208301856127f3565b61322860408301846127f3565b949350505050565b7f506f6f6c206d75737420626520636f6d706c6574656420746f206765742066695f8201527f6e616c2077696e6e657273000000000000000000000000000000000000000000602082015250565b5f61328a602b83612cd6565b915061329582613230565b604082019050919050565b5f6020820190508181035f8301526132b78161327e565b9050919050565b7f506f6f6c206d75737420626520636f6d706c6574656420746f2064657465726d5f8201527f696e652077696e6e657273000000000000000000000000000000000000000000602082015250565b5f613318602b83612cd6565b9150613323826132be565b604082019050919050565b5f6020820190508181035f8301526133458161330c565b9050919050565b7f506f6f6c206d75737420626520636f6d706c6574656420746f20636c61696d205f8201527f7072697a65000000000000000000000000000000000000000000000000000000602082015250565b5f6133a6602583612cd6565b91506133b18261334c565b604082019050919050565b5f6020820190508181035f8301526133d38161339a565b9050919050565b7f4f6e6c792077696e6e6572732063616e20636c61696d207072697a65730000005f82015250565b5f61340e601d83612cd6565b9150613419826133da565b602082019050919050565b5f6020820190508181035f83015261343b81613402565b9050919050565b7f5072697a6520616c726561647920636c61696d656400000000000000000000005f82015250565b5f613476601583612cd6565b915061348182613442565b602082019050919050565b5f6020820190508181035f8301526134a38161346a565b9050919050565b7f4e487b71000000000000000000000000000000000000000000000000000000005f52601260045260245ffd5b5f6134e182612650565b91506134ec83612650565b9250826134fc576134fb6134aa565b5b828204905092915050565b5f81905092915050565b50565b5f61351f5f83613507565b915061352a82613511565b5f82019050919050565b5f61353e82613514565b9150819050919050565b7f5072697a65207472616e73666572206661696c656400000000000000000000005f82015250565b5f61357c601583612cd6565b915061358782613548565b602082019050919050565b5f6020820190508181035f8301526135a981613570565b9050919050565b5f6060820190506135c35f8301866127f3565b6135d06020830185612952565b6135dd60408301846127f3565b949350505050565b7f4e487b71000000000000000000000000000000000000000000000000000000005f52604160045260245ffd5b7f506f6f6c206d75737420626520616374697665000000000000000000000000005f82015250565b5f613646601383612cd6565b915061365182613612565b602082019050919050565b5f6020820190508181035f8301526136738161363a565b9050919050565b7f526f756e6420616c726561647920636f6d706c657465640000000000000000005f82015250565b5f6136ae601783612cd6565b91506136b98261367a565b602082019050919050565b5f6020820190508181035f8301526136db816136a2565b9050919050565b5f6136ec82612650565b91505f82036136fe576136fd612fa2565b5b600182039050919050565b6003811061371a57613719612802565b5b50565b5f81905061372a82613709565b919050565b5f6137398261371d565b9050919050565b6137498161372f565b82525050565b5f6060820190506137625f8301866127f3565b61376f60208301856127f3565b61377c6040830184613740565b949350505050565b5f81549050919050565b5f819050815f5260205f209050919050565b5f815f1c9050919050565b5f73ffffffffffffffffffffffffffffffffffffffff82169050919050565b5f6137dc6137d7836137a0565b6137ab565b9050919050565b5f6137ee82546137ca565b9050919050565b5f600182019050919050565b5f61380b82613784565b61381581856126cb565b93506138208361378e565b805f5b8381101561385757613834826137e3565b61383e8882612729565b9750613849836137f5565b925050600181019050613823565b5085935050505092915050565b5f6060820190506138775f8301866127f3565b61388460208301856127f3565b81810360408301526138968184613801565b9050949350505050565b5f6040820190506138b35f8301856127f3565b6138c060208301846127f3565b939250505056fea264697066735822122027f27c51ea2b915006c92f9808adf0a5911a3c2b20a54a5c00f1809abe0cf91164736f6c63430008140033","linkReferences":{}},"methodIdentifiers":{"claimPrize(uint256)":"d7098154","createPool(uint256,uint256)":"74a110c2","didPlayerWinRound(uint256,uint256,address)":"f1aa668a","getAllPools()":"d88ff1f4","getFinalWinners(uint256)":"9a5b5a96","getPlayerStatus(uint256,address)":"958b3bd3","getPoolInfo(uint256)":"2f380b35","getRoundLosers(uint256,uint256)":"04ad1ade","getRoundWinners(uint256,uint256)":"b78ae7e0","isPlayerWinner(uint256,address)":"c1f94796","joinPool(uint256)":"34e7a19f","makeSelection(uint256,uint8)":"61a8694a","owner()":"8da5cb5b","poolCount()":"f525cb68","pools(uint256)":"ac4afa38","renounceOwnership()":"715018a6","transferOwnership(address)":"f2fde38b"},"id":17}